{
  "transactions": [
    {
      "hash": "0x7562c2031c9c77108d60e10687e5df5e3fc811f2764d2f4aafdefdea95775b1e",
      "transactionType": "CALL",
      "contractName": null,
      "contractAddress": "0x620870d419f6afca8afed5b516619aa50900cadc",
      "function": "registerIdentity(address)",
      "arguments": [
        "0xa039F4E162F8A8C5d01C57b78daDa8dcc976657a"
      ],
      "transaction": {
        "from": "0x742812a2ff08b76f968dffa7ca6892a428caebb1",
        "to": "0x620870d419f6afca8afed5b516619aa50900cadc",
        "gas": "0xbc1ba82",
        "value": "0x0",
        "input": "0x63b8f8ff000000000000000000000000a039f4e162f8a8c5d01c57b78dada8dcc976657a",
        "nonce": "0x1f",
        "chainId": "0x138b"
      },
      "additionalContracts": [],
      "isFixedGasLimit": false
    },
    {
      "hash": "0xab71f665ab5959290e67a5b43a7081b59ec7797e8d3a1d517c6f0e7613f8de9c",
      "transactionType": "CALL",
      "contractName": null,
      "contractAddress": "0x620870d419f6afca8afed5b516619aa50900cadc",
      "function": "registerIdentity(address)",
      "arguments": [
        "0x2737e491775055F7218b40A11DE10dA855968277"
      ],
      "transaction": {
        "from": "0x742812a2ff08b76f968dffa7ca6892a428caebb1",
        "to": "0x620870d419f6afca8afed5b516619aa50900cadc",
        "gas": "0xbc1ba82",
        "value": "0x0",
        "input": "0x63b8f8ff0000000000000000000000002737e491775055f7218b40a11de10da855968277",
        "nonce": "0x20",
        "chainId": "0x138b"
      },
      "additionalContracts": [],
      "isFixedGasLimit": false
    }
  ],
  "receipts": [
    {
      "status": "0x1",
      "cumulativeGasUsed": "0x77ad009",
      "logs": [
        {
          "address": "0x620870d419f6afca8afed5b516619aa50900cadc",
          "topics": [
            "0x22bfb6218489c201b6ec174e5dd0380b7877b3a2d12eed0542f6b5e8ef712f28",
            "0x000000000000000000000000a039f4e162f8a8c5d01c57b78dada8dcc976657a"
          ],
          "data": "0x000000000000000000000000000000000000000000000000000000006944d261",
          "blockHash": "0xdeecfe95e7acfb2e55d4b4a19b2a0321c23353803e34b908264164875faaba21",
          "blockNumber": "0x1eca7c0",
          "blockTimestamp": "0x6944d261",
          "transactionHash": "0x7562c2031c9c77108d60e10687e5df5e3fc811f2764d2f4aafdefdea95775b1e",
          "transactionIndex": "0x1",
          "logIndex": "0x0",
          "removed": false
        }
      ],
      "logsBloom": "0x00000000000000000000000000000100000000000000000000000000000000000000000000000000000000000000800000000000000000000000000000000000080000000000000000000000000000000000000001000000000000000000000000000000000000200000000000000000008000000000000000000000000000000000001000000000000000000000000000000000000000000000000000000000000000000000000000000000000000000000000000000000000000000000001000000000000000000000000000000000000000000000000000000000000400000000000000000000000000000000000000000000000000000000000000000000",
      "type": "0x2",
      "transactionHash": "0x7562c2031c9c77108d60e10687e5df5e3fc811f2764d2f4aafdefdea95775b1e",
      "transactionIndex": "0x1",
      "blockHash": "0xdeecfe95e7acfb2e55d4b4a19b2a0321c23353803e34b908264164875faaba21",
      "blockNumber": "0x1eca7c0",
      "gasUsed": "0x77a1910",
      "effectiveGasPrice": "0x132b3a0",
      "from": "0x742812a2ff08b76f968dffa7ca6892a428caebb1",
      "to": "0x620870d419f6afca8afed5b516619aa50900cadc",
      "contractAddress": null,
      "l1Fee": "0xb0d60",
      "l1FeeScalar": "0.01",
      "l1GasPrice": "0xc",
      "l1GasUsed": "0x960",
      "tokenRatio": "0x9d3"
    },
    {
      "status": "0x1",
      "cumulativeGasUsed": "0x77ad009",
      "logs": [
        {
          "address": "0x620870d419f6afca8afed5b516619aa50900cadc",
          "topics": [
            "0x22bfb6218489c201b6ec174e5dd0380b7877b3a2d12eed0542f6b5e8ef712f28",
            "0x0000000000000000000000002737e491775055f7218b40a11de10da855968277"
          ],
          "data": "0x000000000000000000000000000000000000000000000000000000006944d265",
          "blockHash": "0x35050cced63f33ab01714c7ce4338e5fb8e7e98d0ba7a2668ed63734a5924c75",
          "blockNumber": "0x1eca7c2",
          "blockTimestamp": "0x6944d265",
          "transactionHash": "0xab71f665ab5959290e67a5b43a7081b59ec7797e8d3a1d517c6f0e7613f8de9c",
          "transactionIndex": "0x1",
          "logIndex": "0x0",
          "removed": false
        }
      ],
      "logsBloom": "0x00000000000000000000000000000100000000000000000000000000000000000000000000000000000000000000000000000000000000000000000000000000080000000000000000000000000000000000000000000000000000000000104000000000000000000000000000000000008000000000000000000000000000000000001000000000000000000000000000000000000000000000000000000000000000000000000000000000000000000200000000000000000000000000001000000000000000000000000000000000000000000000000000000000000400000000000000000000000000000000000000000000000000000000000000000000",
      "type": "0x2",
      "transactionHash": "0xab71f665ab5959290e67a5b43a7081b59ec7797e8d3a1d517c6f0e7613f8de9c",
      "transactionIndex": "0x1",
      "blockHash": "0x35050cced63f33ab01714c7ce4338e5fb8e7e98d0ba7a2668ed63734a5924c75",
      "blockNumber": "0x1eca7c2",
      "gasUsed": "0x77a1910",
      "effectiveGasPrice": "0x132b3a0",
      "from": "0x742812a2ff08b76f968dffa7ca6892a428caebb1",
      "to": "0x620870d419f6afca8afed5b516619aa50900cadc",
      "contractAddress": null,
      "l1Fee": "0xb0d60",
      "l1FeeScalar": "0.01",
      "l1GasPrice": "0xc",
      "l1GasUsed": "0x960",
      "tokenRatio": "0x9d3"
    }
  ],
  "libraries": [],
  "pending": [],
  "returns": {},
  "timestamp": 1766117987,
  "chain": 5003,
  "commit": "77cd2cd"
}