{
  "transactions": [
    {
      "hash": "0x773ffe8970d6cfbfb16558a5db3e724843f96a6728327477dbd256dd1f298dd4",
      "transactionType": "CALL",
      "contractName": null,
      "contractAddress": "0x998ceb700e57f535873d189a6b1b7e2aa8c594eb",
      "function": "approve(address,uint256)",
      "arguments": [
        "0x3A1229F6D51940DBa65710F9F6ab0296FD56718B",
        "115792089237316195423570985008687907853269984665640564039457584007913129639935"
      ],
      "transaction": {
        "from": "0x742812a2ff08b76f968dffa7ca6892a428caebb1",
        "to": "0x998ceb700e57f535873d189a6b1b7e2aa8c594eb",
        "gas": "0xfbf8",
        "value": "0x0",
        "input": "0x095ea7b30000000000000000000000003a1229f6d51940dba65710f9f6ab0296fd56718bffffffffffffffffffffffffffffffffffffffffffffffffffffffffffffffff",
        "nonce": "0x1a",
        "chainId": "0x14a34"
      },
      "additionalContracts": [],
      "isFixedGasLimit": false
    }
  ],
  "receipts": [
    {
      "status": "0x1",
      "cumulativeGasUsed": "0x7acdb",
      "logs": [
        {
          "address": "0x998ceb700e57f535873d189a6b1b7e2aa8c594eb",
          "topics": [
            "0x8c5be1e5ebec7d5bd14f71427d1e84f3dd0314c0f7b2291e5b200ac8c7c3b925",
            "0x000000000000000000000000742812a2ff08b76f968dffa7ca6892a428caebb1",
            "0x0000000000000000000000003a1229f6d51940dba65710f9f6ab0296fd56718b"
          ],
          "data": "0xffffffffffffffffffffffffffffffffffffffffffffffffffffffffffffffff",
          "blockHash": "0x95e1c8cb61f4b3d791cb736c69592bc6c4fe17adf058292b5c7ad9d9d430616c",
          "blockNumber": "0x22847a0",
          "blockTimestamp": "0x6963ee20",
          "transactionHash": "0x773ffe8970d6cfbfb16558a5db3e724843f96a6728327477dbd256dd1f298dd4",
          "transactionIndex": "0x5",
          "logIndex": "0x4",
          "removed": false
        }
      ],
      "logsBloom": "0x00810000000000000000000000400000008000000000000000000000000000000000000000000000004000000000000000000000000000000000000000200000000400000000000000000000000000000000000000000000000000000000000000000000010000000000000000000000000000000000000000000000000000000000000000000000000000000000000000000000000000000000000000000800020000000000000000000000000000000000000000000000000000000000000000000000000000000000000000000000000000000000000000000000000040000010000000000000000000000000000000000000000000000000000000000000",
      "type": "0x2",
      "transactionHash": "0x773ffe8970d6cfbfb16558a5db3e724843f96a6728327477dbd256dd1f298dd4",
      "transactionIndex": "0x5",
      "blockHash": "0x95e1c8cb61f4b3d791cb736c69592bc6c4fe17adf058292b5c7ad9d9d430616c",
      "blockNumber": "0x22847a0",
      "gasUsed": "0xb66d",
      "effectiveGasPrice": "0x124f80",
      "blobGasUsed": "0x79e0",
      "from": "0x742812a2ff08b76f968dffa7ca6892a428caebb1",
      "to": "0x998ceb700e57f535873d189a6b1b7e2aa8c594eb",
      "contractAddress": null,
      "daFootprintGasScalar": "0x138",
      "l1BaseFeeScalar": "0x44d",
      "l1BlobBaseFee": "0xc04",
      "l1BlobBaseFeeScalar": "0xa118b",
      "l1Fee": "0x46341",
      "l1GasPrice": "0xbb8f",
      "l1GasUsed": "0x640"
    }
  ],
  "libraries": [],
  "pending": [],
  "returns": {},
  "timestamp": 1768156702743,
  "chain": 84532,
  "commit": "767cf24"
}