{
  "transactions": [
    {
      "hash": "0x8fb659e9973e975437c42d898a972f4f7192783e6bf875cdb209d54c5d006585",
      "transactionType": "CALL",
      "contractName": null,
      "contractAddress": "0x998ceb700e57f535873d189a6b1b7e2aa8c594eb",
      "function": "publicMint(address,uint256)",
      "arguments": [
        "0x742812a2Ff08b76f968dffA7ca6892A428cAeBb1",
        "100000000000000000000"
      ],
      "transaction": {
        "from": "0x742812a2ff08b76f968dffa7ca6892a428caebb1",
        "to": "0x998ceb700e57f535873d189a6b1b7e2aa8c594eb",
        "gas": "0x11d2d",
        "value": "0x0",
        "input": "0xce6df2b9000000000000000000000000742812a2ff08b76f968dffa7ca6892a428caebb10000000000000000000000000000000000000000000000056bc75e2d63100000",
        "nonce": "0x19",
        "chainId": "0x14a34"
      },
      "additionalContracts": [],
      "isFixedGasLimit": false
    }
  ],
  "receipts": [
    {
      "status": "0x1",
      "cumulativeGasUsed": "0x17fe0e",
      "logs": [
        {
          "address": "0x998ceb700e57f535873d189a6b1b7e2aa8c594eb",
          "topics": [
            "0xddf252ad1be2c89b69c2b068fc378daa952ba7f163c4a11628f55a4df523b3ef",
            "0x0000000000000000000000000000000000000000000000000000000000000000",
            "0x000000000000000000000000742812a2ff08b76f968dffa7ca6892a428caebb1"
          ],
          "data": "0x0000000000000000000000000000000000000000000000056bc75e2d63100000",
          "blockHash": "0x29f28ff4272484a4b3258e40556ed24f6d493d80588d2eb573e6fcfa5fad1792",
          "blockNumber": "0x2284793",
          "blockTimestamp": "0x6963ee06",
          "transactionHash": "0x8fb659e9973e975437c42d898a972f4f7192783e6bf875cdb209d54c5d006585",
          "transactionIndex": "0x10",
          "logIndex": "0x1a",
          "removed": false
        },
        {
          "address": "0x998ceb700e57f535873d189a6b1b7e2aa8c594eb",
          "topics": [
            "0x0f6798a560793a54c3bcfe86a93cde1e73087d944c0ea20544137d4121396885",
            "0x000000000000000000000000742812a2ff08b76f968dffa7ca6892a428caebb1"
          ],
          "data": "0x0000000000000000000000000000000000000000000000056bc75e2d63100000",
          "blockHash": "0x29f28ff4272484a4b3258e40556ed24f6d493d80588d2eb573e6fcfa5fad1792",
          "blockNumber": "0x2284793",
          "blockTimestamp": "0x6963ee06",
          "transactionHash": "0x8fb659e9973e975437c42d898a972f4f7192783e6bf875cdb209d54c5d006585",
          "transactionIndex": "0x10",
          "logIndex": "0x1b",
          "removed": false
        }
      ],
      "logsBloom": "0x00010000000000000000000000400000008000000000000000000000000000000000000000000000004000000000000000000000000000000000000000000000000000000020000000000008000000000000000000000000000000000000000000000000030000000000000000000800000000000000400000000010000000000000000000000000000000000000000000000000000000000000000000000000000080000000000000000000000000000000000000000000000000000000000000000002000000000000000000000000000000000000000000000000000060000000000000000000000000000000000000000000000000000000000000000000",
      "type": "0x2",
      "transactionHash": "0x8fb659e9973e975437c42d898a972f4f7192783e6bf875cdb209d54c5d006585",
      "transactionIndex": "0x10",
      "blockHash": "0x29f28ff4272484a4b3258e40556ed24f6d493d80588d2eb573e6fcfa5fad1792",
      "blockNumber": "0x2284793",
      "gasUsed": "0xce77",
      "effectiveGasPrice": "0x124f80",
      "blobGasUsed": "0x79e0",
      "from": "0x742812a2ff08b76f968dffa7ca6892a428caebb1",
      "to": "0x998ceb700e57f535873d189a6b1b7e2aa8c594eb",
      "contractAddress": null,
      "daFootprintGasScalar": "0x138",
      "l1BaseFeeScalar": "0x44d",
      "l1BlobBaseFee": "0xca9",
      "l1BlobBaseFeeScalar": "0xa118b",
      "l1Fee": "0x4a72b",
      "l1GasPrice": "0xc9f8",
      "l1GasUsed": "0x640"
    }
  ],
  "libraries": [],
  "pending": [],
  "returns": {},
  "timestamp": 1768156677673,
  "chain": 84532,
  "commit": "767cf24"
}