{
  "transactions": [
    {
      "hash": "0x7509b3cc0960ade0e1a08226e4d7b762fe48baf891f8a38ccff65f2a916c6f5d",
      "transactionType": "CALL",
      "contractName": null,
      "contractAddress": "0xa8f2b8180cafc670f4a24114fdb9c50361038857",
      "function": "registerIdentity(address)",
      "arguments": [
        "0x3A1229F6D51940DBa65710F9F6ab0296FD56718B"
      ],
      "transaction": {
        "from": "0x742812a2ff08b76f968dffa7ca6892a428caebb1",
        "to": "0xa8f2b8180cafc670f4a24114fdb9c50361038857",
        "gas": "0x10d1c",
        "value": "0x0",
        "input": "0x63b8f8ff0000000000000000000000003a1229f6d51940dba65710f9f6ab0296fd56718b",
        "nonce": "0x17",
        "chainId": "0x14a34"
      },
      "additionalContracts": [],
      "isFixedGasLimit": false
    },
    {
      "hash": "0x57fb1acfc94c41cedcfe05cc08abe205da0d963cd4c173a9fc28fc70da6efdf6",
      "transactionType": "CALL",
      "contractName": null,
      "contractAddress": "0xa8f2b8180cafc670f4a24114fdb9c50361038857",
      "function": "registerIdentity(address)",
      "arguments": [
        "0x41c7215F0538200013F428732900bC581015c50e"
      ],
      "transaction": {
        "from": "0x742812a2ff08b76f968dffa7ca6892a428caebb1",
        "to": "0xa8f2b8180cafc670f4a24114fdb9c50361038857",
        "gas": "0xab1e",
        "value": "0x0",
        "input": "0x63b8f8ff00000000000000000000000041c7215f0538200013f428732900bc581015c50e",
        "nonce": "0x18",
        "chainId": "0x14a34"
      },
      "additionalContracts": [],
      "isFixedGasLimit": false
    }
  ],
  "receipts": [
    {
      "status": "0x1",
      "cumulativeGasUsed": "0x1d30ab",
      "logs": [
        {
          "address": "0xa8f2b8180cafc670f4a24114fdb9c50361038857",
          "topics": [
            "0x22bfb6218489c201b6ec174e5dd0380b7877b3a2d12eed0542f6b5e8ef712f28",
            "0x0000000000000000000000003a1229f6d51940dba65710f9f6ab0296fd56718b"
          ],
          "data": "0x000000000000000000000000000000000000000000000000000000006963edba",
          "blockHash": "0x6b7835a4b4b2ca329f5b9d8d5327ac10fa486806932fb3f965d727c0a3c0597c",
          "blockNumber": "0x228476d",
          "blockTimestamp": "0x6963edba",
          "transactionHash": "0x57fb1acfc94c41cedcfe05cc08abe205da0d963cd4c173a9fc28fc70da6efdf6",
          "transactionIndex": "0x10",
          "logIndex": "0x21",
          "removed": false
        }
      ],
      "logsBloom": "0x00800000000000000000000000000100000000000000000000000000000000000000000000000000000000000000000000000000000000000000000000000000000400000000000000000000000000000000000000000000000000000000000000008000000000000000000000000000000000000000000000000000000000000000001000000000000000000000000000000000000800000000000000000800000000000000000000000000000000000000000000000000000000000000000000000000000000000000000000000000000000000000000000000000000400000000000000000000000000000000000000000000000000000000000000000000",
      "type": "0x2",
      "transactionHash": "0x57fb1acfc94c41cedcfe05cc08abe205da0d963cd4c173a9fc28fc70da6efdf6",
      "transactionIndex": "0x10",
      "blockHash": "0x6b7835a4b4b2ca329f5b9d8d5327ac10fa486806932fb3f965d727c0a3c0597c",
      "blockNumber": "0x228476d",
      "gasUsed": "0xc2d5",
      "effectiveGasPrice": "0x124f80",
      "blobGasUsed": "0x79e0",
      "from": "0x742812a2ff08b76f968dffa7ca6892a428caebb1",
      "to": "0xa8f2b8180cafc670f4a24114fdb9c50361038857",
      "contractAddress": null,
      "daFootprintGasScalar": "0x138",
      "l1BaseFeeScalar": "0x44d",
      "l1BlobBaseFee": "0xa94",
      "l1BlobBaseFeeScalar": "0xa118b",
      "l1Fee": "0x3f5f1",
      "l1GasPrice": "0xb35a",
      "l1GasUsed": "0x640"
    },
    {
      "status": "0x1",
      "cumulativeGasUsed": "0x1da5ac",
      "logs": [
        {
          "address": "0xa8f2b8180cafc670f4a24114fdb9c50361038857",
          "topics": [
            "0x22bfb6218489c201b6ec174e5dd0380b7877b3a2d12eed0542f6b5e8ef712f28",
            "0x00000000000000000000000041c7215f0538200013f428732900bc581015c50e"
          ],
          "data": "0x000000000000000000000000000000000000000000000000000000006963edba",
          "blockHash": "0x6b7835a4b4b2ca329f5b9d8d5327ac10fa486806932fb3f965d727c0a3c0597c",
          "blockNumber": "0x228476d",
          "blockTimestamp": "0x6963edba",
          "transactionHash": "0x7509b3cc0960ade0e1a08226e4d7b762fe48baf891f8a38ccff65f2a916c6f5d",
          "transactionIndex": "0x11",
          "logIndex": "0x22",
          "removed": false
        }
      ],
      "logsBloom": "0x00000000000000000000000000000100000000000000000000000000000000000000000000000000000000000000000000000000000000000000000000000000000000000000000000000200000000000000000000000000000000000000000000008000000000000000000000000000000000000000000000000000000000000000001000000000000000000000000000000000000800000000000000000000000000000000000000000000000000000000000000000000000000000000000000000008000000000000000000000000000000080000000000000000000400000000000000000000000000000000000000000000000000000000000000000000",
      "type": "0x2",
      "transactionHash": "0x7509b3cc0960ade0e1a08226e4d7b762fe48baf891f8a38ccff65f2a916c6f5d",
      "transactionIndex": "0x11",
      "blockHash": "0x6b7835a4b4b2ca329f5b9d8d5327ac10fa486806932fb3f965d727c0a3c0597c",
      "blockNumber": "0x228476d",
      "gasUsed": "0x7501",
      "effectiveGasPrice": "0x124f80",
      "blobGasUsed": "0x79e0",
      "from": "0x742812a2ff08b76f968dffa7ca6892a428caebb1",
      "to": "0xa8f2b8180cafc670f4a24114fdb9c50361038857",
      "contractAddress": null,
      "daFootprintGasScalar": "0x138",
      "l1BaseFeeScalar": "0x44d",
      "l1BlobBaseFee": "0xa94",
      "l1BlobBaseFeeScalar": "0xa118b",
      "l1Fee": "0x3f5f1",
      "l1GasPrice": "0xb35a",
      "l1GasUsed": "0x640"
    }
  ],
  "libraries": [],
  "pending": [],
  "returns": {},
  "timestamp": 1768156601048,
  "chain": 84532,
  "commit": "767cf24"
}