{
  "transactions": [
    {
      "hash": "0xf674dbbb27cce66a41016e828cb8160c7649b3497864f3ac38ba09debcc561dd",
      "transactionType": "CALL",
      "contractName": null,
      "contractAddress": "0x998ceb700e57f535873d189a6b1b7e2aa8c594eb",
      "function": "publicMint(address,uint256)",
      "arguments": [
        "0x742812a2Ff08b76f968dffA7ca6892A428cAeBb1",
        "1000000000000000"
      ],
      "transaction": {
        "from": "0x742812a2ff08b76f968dffa7ca6892a428caebb1",
        "to": "0x998ceb700e57f535873d189a6b1b7e2aa8c594eb",
        "gas": "0x17960",
        "value": "0x0",
        "input": "0xce6df2b9000000000000000000000000742812a2ff08b76f968dffa7ca6892a428caebb100000000000000000000000000000000000000000000000000038d7ea4c68000",
        "nonce": "0x9",
        "chainId": "0x14a34"
      },
      "additionalContracts": [],
      "isFixedGasLimit": false
    },
    {
      "hash": "0x03583f61c3b7560899b4cee57140624a524939a270abc3b3d8da6fd7665b2088",
      "transactionType": "CALL",
      "contractName": null,
      "contractAddress": "0xcd88c2886a1958ba36238a070e71b51cf930b44d",
      "function": "publicMint(address,uint256)",
      "arguments": [
        "0x742812a2Ff08b76f968dffA7ca6892A428cAeBb1",
        "10060606000000"
      ],
      "transaction": {
        "from": "0x742812a2ff08b76f968dffa7ca6892a428caebb1",
        "to": "0xcd88c2886a1958ba36238a070e71b51cf930b44d",
        "gas": "0x18f73",
        "value": "0x0",
        "input": "0xce6df2b9000000000000000000000000742812a2ff08b76f968dffa7ca6892a428caebb1000000000000000000000000000000000000000000000000000009266ad8cb80",
        "nonce": "0xa",
        "chainId": "0x14a34"
      },
      "additionalContracts": [],
      "isFixedGasLimit": false
    },
    {
      "hash": "0xb86cb5855ded09703d2bf9fc04e9b207e888af1a26b6a7a4d8c7984b4fd53941",
      "transactionType": "CALL",
      "contractName": null,
      "contractAddress": "0x56eedf50c3c4b47ca9762298b22cb86468f834fc",
      "function": "mint(address,uint256)",
      "arguments": [
        "0x742812a2Ff08b76f968dffA7ca6892A428cAeBb1",
        "2500000000"
      ],
      "transaction": {
        "from": "0x742812a2ff08b76f968dffa7ca6892a428caebb1",
        "to": "0x56eedf50c3c4b47ca9762298b22cb86468f834fc",
        "gas": "0x1a5ca",
        "value": "0x0",
        "input": "0x40c10f19000000000000000000000000742812a2ff08b76f968dffa7ca6892a428caebb1000000000000000000000000000000000000000000000000000000009502f900",
        "nonce": "0xb",
        "chainId": "0x14a34"
      },
      "additionalContracts": [],
      "isFixedGasLimit": false
    },
    {
      "hash": "0x1da1a02023349efeec18c6e62b5a8c30350fd77ebaa5a24c3eb6e41c81b8a4ef",
      "transactionType": "CALL",
      "contractName": null,
      "contractAddress": "0x998ceb700e57f535873d189a6b1b7e2aa8c594eb",
      "function": "approve(address,uint256)",
      "arguments": [
        "0x620870d419F6aFca8AFed5B516619aa50900cadc",
        "115792089237316195423570985008687907853269984665640564039457584007913129639935"
      ],
      "transaction": {
        "from": "0x742812a2ff08b76f968dffa7ca6892a428caebb1",
        "to": "0x998ceb700e57f535873d189a6b1b7e2aa8c594eb",
        "gas": "0x10aba",
        "value": "0x0",
        "input": "0x095ea7b3000000000000000000000000620870d419f6afca8afed5b516619aa50900cadcffffffffffffffffffffffffffffffffffffffffffffffffffffffffffffffff",
        "nonce": "0xc",
        "chainId": "0x14a34"
      },
      "additionalContracts": [],
      "isFixedGasLimit": false
    },
    {
      "hash": "0xe475e35687a3c413a0ff62e0b23e90fb0eee2dbd9121dbcd47330c7febbcdb95",
      "transactionType": "CALL",
      "contractName": null,
      "contractAddress": "0xcd88c2886a1958ba36238a070e71b51cf930b44d",
      "function": "approve(address,uint256)",
      "arguments": [
        "0x620870d419F6aFca8AFed5B516619aa50900cadc",
        "115792089237316195423570985008687907853269984665640564039457584007913129639935"
      ],
      "transaction": {
        "from": "0x742812a2ff08b76f968dffa7ca6892a428caebb1",
        "to": "0xcd88c2886a1958ba36238a070e71b51cf930b44d",
        "gas": "0x10aba",
        "value": "0x0",
        "input": "0x095ea7b3000000000000000000000000620870d419f6afca8afed5b516619aa50900cadcffffffffffffffffffffffffffffffffffffffffffffffffffffffffffffffff",
        "nonce": "0xd",
        "chainId": "0x14a34"
      },
      "additionalContracts": [],
      "isFixedGasLimit": false
    },
    {
      "hash": "0x44878237dd0068cf8b41710dfe7b4cbfc9e92fcfb7f8f463f36027e1fc7bab49",
      "transactionType": "CALL",
      "contractName": null,
      "contractAddress": "0x56eedf50c3c4b47ca9762298b22cb86468f834fc",
      "function": "approve(address,uint256)",
      "arguments": [
        "0x620870d419F6aFca8AFed5B516619aa50900cadc",
        "115792089237316195423570985008687907853269984665640564039457584007913129639935"
      ],
      "transaction": {
        "from": "0x742812a2ff08b76f968dffa7ca6892a428caebb1",
        "to": "0x56eedf50c3c4b47ca9762298b22cb86468f834fc",
        "gas": "0x10abb",
        "value": "0x0",
        "input": "0x095ea7b3000000000000000000000000620870d419f6afca8afed5b516619aa50900cadcffffffffffffffffffffffffffffffffffffffffffffffffffffffffffffffff",
        "nonce": "0xe",
        "chainId": "0x14a34"
      },
      "additionalContracts": [],
      "isFixedGasLimit": false
    },
    {
      "hash": "0xe9ed08cb1a16176ab9656ecfad54c03605fc0c87d30f860af298e50c0cf91ccb",
      "transactionType": "CALL",
      "contractName": null,
      "contractAddress": "0xa8f2b8180cafc670f4a24114fdb9c50361038857",
      "function": "registerIdentity(address)",
      "arguments": [
        "0x620870d419F6aFca8AFed5B516619aa50900cadc"
      ],
      "transaction": {
        "from": "0x742812a2ff08b76f968dffa7ca6892a428caebb1",
        "to": "0xa8f2b8180cafc670f4a24114fdb9c50361038857",
        "gas": "0x11cdf",
        "value": "0x0",
        "input": "0x63b8f8ff000000000000000000000000620870d419f6afca8afed5b516619aa50900cadc",
        "nonce": "0xf",
        "chainId": "0x14a34"
      },
      "additionalContracts": [],
      "isFixedGasLimit": false
    },
    {
      "hash": "0x0c4518b5527b4a44f6184f81aa22a978493ff73eed1f4ed6d04a787925ed252c",
      "transactionType": "CALL",
      "contractName": null,
      "contractAddress": "0x620870d419f6afca8afed5b516619aa50900cadc",
      "function": "addLiquidity(address,address,uint256,uint256,uint256,uint256,address,uint256)",
      "arguments": [
        "0x998ceb700e57f535873D189a6b1B7E2aA8C594EB",
        "0xCd88C2886A1958BA36238A070e71B51CF930b44d",
        "1000000000000000",
        "60606000000",
        "0",
        "0",
        "0x742812a2Ff08b76f968dffA7ca6892A428cAeBb1",
        "1768159220"
      ],
      "transaction": {
        "from": "0x742812a2ff08b76f968dffa7ca6892a428caebb1",
        "to": "0x620870d419f6afca8afed5b516619aa50900cadc",
        "gas": "0x23d366",
        "value": "0x0",
        "input": "0xe8e33700000000000000000000000000998ceb700e57f535873d189a6b1b7e2aa8c594eb000000000000000000000000cd88c2886a1958ba36238a070e71b51cf930b44d00000000000000000000000000000000000000000000000000038d7ea4c680000000000000000000000000000000000000000000000000000000000e1c662b8000000000000000000000000000000000000000000000000000000000000000000000000000000000000000000000000000000000000000000000000000000000000000000000000000000000742812a2ff08b76f968dffa7ca6892a428caebb1000000000000000000000000000000000000000000000000000000006963f7f4",
        "nonce": "0x10",
        "chainId": "0x14a34"
      },
      "additionalContracts": [
        {
          "transactionType": "CREATE",
          "contractName": null,
          "address": "0xd1fed56a7b4c93df968494bb9a6023546da45d3b",
          "initCode": "0x608060405234801561000f575f5ffd5b50604051611af9380380611af983398101604081905261002e916100eb565b6040518060400160405280600a8152602001692ab734b9bbb0b8102b1960b11b815250604051806040016040528060068152602001652aa72496ab1960d11b815250816003908161007f91906101b4565b50600461008c82826101b4565b5050600580546001600160a01b039485166001600160a01b03199182161790915560068054939094169281169290921790925560088054909116331790555061026e565b80516001600160a01b03811681146100e6575f5ffd5b919050565b5f5f604083850312156100fc575f5ffd5b610105836100d0565b9150610113602084016100d0565b90509250929050565b634e487b7160e01b5f52604160045260245ffd5b600181811c9082168061014457607f821691505b60208210810361016257634e487b7160e01b5f52602260045260245ffd5b50919050565b601f8211156101af57805f5260205f20601f840160051c8101602085101561018d5750805b601f840160051c820191505b818110156101ac575f8155600101610199565b50505b505050565b81516001600160401b038111156101cd576101cd61011c565b6101e1816101db8454610130565b84610168565b6020601f821160018114610213575f83156101fc5750848201515b5f19600385901b1c1916600184901b1784556101ac565b5f84815260208120601f198516915b828110156102425787850151825560209485019460019092019101610222565b508482101561025f57868401515f19600387901b60f8161c191681555b50505050600190811b01905550565b61187e8061027b5f395ff3fe608060405234801561000f575f5ffd5b50600436106101a1575f3560e01c80636a627842116100f3578063ba9a7a5611610093578063d21220a71161006e578063d21220a7146103a1578063d505accf146103b4578063dd62ed3e146103cb578063fff6cae914610403575f5ffd5b8063ba9a7a5614610372578063bc25cf771461037b578063c45a01551461038e575f5ffd5b80637ecebe00116100ce5780637ecebe001461031c57806389afcb441461032f57806395d89b4114610357578063a9059cbb1461035f575f5ffd5b80636a627842146102ed57806370a08231146103005780637464fc3d14610313575f5ffd5b806323b872dd1161015e5780633644e515116101395780633644e5151461028a578063485cc9551461029f5780635909c0d5146102db5780635a3d5493146102e4575f5ffd5b806323b872dd1461027757806330adf81f1461028a578063313ce56714610290575f5ffd5b8063022c0d9f146101a557806306fdde03146101ba5780630902f1ac146101d8578063095ea7b3146102135780630dfe16811461023657806318160ddd14610261575b5f5ffd5b6101b86101b3366004611579565b61040b565b005b6101c26106a3565b6040516101cf9190611607565b60405180910390f35b600754604080516001600160701b038084168252600160701b8404166020820152600160e01b90920463ffffffff16908201526060016101cf565b61022661022136600461163c565b610733565b60405190151581526020016101cf565b600554610249906001600160a01b031681565b6040516001600160a01b0390911681526020016101cf565b61026961074c565b6040519081526020016101cf565b610226610285366004611664565b61075b565b5f610269565b604051601281526020016101cf565b6101b86102ad36600461169e565b600580546001600160a01b039384166001600160a01b03199182161790915560068054929093169116179055565b61026960095481565b610269600a5481565b6102696102fb3660046116cf565b61077e565b61026961030e3660046116cf565b6109da565b610269600b5481565b61026961032a3660046116cf565b505f90565b61034261033d3660046116cf565b6109f7565b604080519283526020830191909152016101cf565b6101c2610d99565b61022661036d36600461163c565b610da8565b6102696103e881565b6101b86103893660046116cf565b610db5565b600854610249906001600160a01b031681565b600654610249906001600160a01b031681565b6101b86103c23660046116e8565b50505050505050565b6102696103d936600461169e565b6001600160a01b039182165f90815260016020908152604080832093909416825291909152205490565b6101b8610fb2565b5f85118061041857505f84115b6104695760405162461bcd60e51b815260206004820152601a60248201527f494e53554646494349454e545f4f55545055545f414d4f554e5400000000000060448201526064015b60405180910390fd5b84156104e55760055460405163a9059cbb60e01b81526001600160a01b038581166004830152602482018890529091169063a9059cbb906044016020604051808303815f875af11580156104bf573d5f5f3e3d5ffd5b505050506040513d601f19601f820116820180604052508101906104e39190611755565b505b83156105615760065460405163a9059cbb60e01b81526001600160a01b038581166004830152602482018790529091169063a9059cbb906044016020604051808303815f875af115801561053b573d5f5f3e3d5ffd5b505050506040513d601f19601f8201168201806040525081019061055f9190611755565b505b6005546040516370a0823160e01b81523060048201525f916001600160a01b0316906370a0823190602401602060405180830381865afa1580156105a7573d5f5f3e3d5ffd5b505050506040513d601f19601f820116820180604052508101906105cb9190611774565b6006546040516370a0823160e01b81523060048201529192505f916001600160a01b03909116906370a0823190602401602060405180830381865afa158015610616573d5f5f3e3d5ffd5b505050506040513d601f19601f8201168201806040525081019061063a9190611774565b9050610646828261108f565b604080515f8082526020820152908101889052606081018790526001600160a01b0386169033907fd78ad95fa46c994b6551d0da85fc275fe613ce37657fb8d5e3d130840159d8229060800160405180910390a350505050505050565b6060600380546106b29061178b565b80601f01602080910402602001604051908101604052809291908181526020018280546106de9061178b565b80156107295780601f1061070057610100808354040283529160200191610729565b820191905f5260205f20905b81548152906001019060200180831161070c57829003601f168201915b5050505050905090565b5f33610740818585611193565b60019150505b92915050565b5f61075660025490565b905090565b5f336107688582856111a5565b610773858585611221565b506001949350505050565b6005546040516370a0823160e01b81523060048201525f9182916001600160a01b03909116906370a0823190602401602060405180830381865afa1580156107c8573d5f5f3e3d5ffd5b505050506040513d601f19601f820116820180604052508101906107ec9190611774565b6006546040516370a0823160e01b81523060048201529192505f916001600160a01b03909116906370a0823190602401602060405180830381865afa158015610837573d5f5f3e3d5ffd5b505050506040513d601f19601f8201168201806040525081019061085b9190611774565b6007549091505f90610876906001600160701b0316846117d1565b6007549091505f9061089890600160701b90046001600160701b0316846117d1565b90505f6108a361074c565b9050805f036108df576103e86108c16108bc84866117e4565b61127e565b6108cb91906117d1565b95506108da60016103e86112ec565b610932565b60075461092f906001600160701b03166108f983866117e4565b610903919061180f565b600754600160701b90046001600160701b031661092084866117e4565b61092a919061180f565b611320565b95505b5f86116109815760405162461bcd60e51b815260206004820152601d60248201527f494e53554646494349454e545f4c49515549444954595f4d494e5445440000006044820152606401610460565b61098b87876112ec565b610995858561108f565b604080518481526020810184905233917f4c209b5fc8ad50758f13e2e1088ba56a560dff690a1c6fef26394f4c03821c4f910160405180910390a25050505050919050565b6001600160a01b0381165f90815260208190526040812054610746565b6005546040516370a0823160e01b81523060048201525f91829182916001600160a01b0316906370a0823190602401602060405180830381865afa158015610a41573d5f5f3e3d5ffd5b505050506040513d601f19601f82011682018060405250810190610a659190611774565b6006546040516370a0823160e01b81523060048201529192505f916001600160a01b03909116906370a0823190602401602060405180830381865afa158015610ab0573d5f5f3e3d5ffd5b505050506040513d601f19601f82011682018060405250810190610ad49190611774565b90505f610ae0306109da565b90505f610aeb61074c565b905080610af885846117e4565b610b02919061180f565b955080610b0f84846117e4565b610b19919061180f565b94505f86118015610b2957505f85115b610b755760405162461bcd60e51b815260206004820152601d60248201527f494e53554646494349454e545f4c49515549444954595f4255524e45440000006044820152606401610460565b610b7f3083611337565b60055460405163a9059cbb60e01b81526001600160a01b038981166004830152602482018990529091169063a9059cbb906044016020604051808303815f875af1158015610bcf573d5f5f3e3d5ffd5b505050506040513d601f19601f82011682018060405250810190610bf39190611755565b5060065460405163a9059cbb60e01b81526001600160a01b038981166004830152602482018890529091169063a9059cbb906044016020604051808303815f875af1158015610c44573d5f5f3e3d5ffd5b505050506040513d601f19601f82011682018060405250810190610c689190611755565b506005546040516370a0823160e01b81523060048201526001600160a01b03909116906370a0823190602401602060405180830381865afa158015610caf573d5f5f3e3d5ffd5b505050506040513d601f19601f82011682018060405250810190610cd39190611774565b6006546040516370a0823160e01b81523060048201529195506001600160a01b0316906370a0823190602401602060405180830381865afa158015610d1a573d5f5f3e3d5ffd5b505050506040513d601f19601f82011682018060405250810190610d3e9190611774565b9250610d4a848461108f565b60408051878152602081018790526001600160a01b0389169133917fdccd412f0b1252819cb1fd330b93224ca42612892bb3f4f789976e6d81936496910160405180910390a350505050915091565b6060600480546106b29061178b565b5f33610740818585611221565b6005546007546040516370a0823160e01b81523060048201526001600160a01b039092169163a9059cbb9184916001600160701b039091169084906370a0823190602401602060405180830381865afa158015610e14573d5f5f3e3d5ffd5b505050506040513d601f19601f82011682018060405250810190610e389190611774565b610e4291906117d1565b6040516001600160e01b031960e085901b1681526001600160a01b03909216600483015260248201526044016020604051808303815f875af1158015610e8a573d5f5f3e3d5ffd5b505050506040513d601f19601f82011682018060405250810190610eae9190611755565b506006546007546040516370a0823160e01b81523060048201526001600160a01b039092169163a9059cbb918491600160701b9091046001600160701b03169084906370a0823190602401602060405180830381865afa158015610f14573d5f5f3e3d5ffd5b505050506040513d601f19601f82011682018060405250810190610f389190611774565b610f4291906117d1565b6040516001600160e01b031960e085901b1681526001600160a01b03909216600483015260248201526044016020604051808303815f875af1158015610f8a573d5f5f3e3d5ffd5b505050506040513d601f19601f82011682018060405250810190610fae9190611755565b5050565b6005546040516370a0823160e01b815230600482015261108d916001600160a01b0316906370a0823190602401602060405180830381865afa158015610ffa573d5f5f3e3d5ffd5b505050506040513d601f19601f8201168201806040525081019061101e9190611774565b6006546040516370a0823160e01b81523060048201526001600160a01b03909116906370a0823190602401602060405180830381865afa158015611064573d5f5f3e3d5ffd5b505050506040513d601f19601f820116820180604052508101906110889190611774565b61108f565b565b6001600160701b0382118015906110ad57506001600160701b038111155b6110e45760405162461bcd60e51b81526020600482015260086024820152674f564552464c4f5760c01b6044820152606401610460565b600780546001600160701b03838116600160701b026001600160e01b03199092169085161717905561111b64010000000042611822565b6007805463ffffffff92909216600160e01b026001600160e01b038316811791829055604080516001600160701b03928316948316949094178452600160701b9092041660208301527f1c411e9a96e071241c2f21f7726b17ae89e3cab4c78be50e062b03a9fffbbad1910160405180910390a15050565b6111a0838383600161136b565b505050565b6001600160a01b038381165f908152600160209081526040808320938616835292905220545f1981101561121b578181101561120d57604051637dc7a0d960e11b81526001600160a01b03841660048201526024810182905260448101839052606401610460565b61121b84848484035f61136b565b50505050565b6001600160a01b03831661124a57604051634b637e8f60e11b81525f6004820152602401610460565b6001600160a01b0382166112735760405163ec442f0560e01b81525f6004820152602401610460565b6111a083838361143d565b5f60038211156112dd5750805f61129660028361180f565b6112a1906001611835565b90505b818110156112d7579050806002816112bc818661180f565b6112c69190611835565b6112d0919061180f565b90506112a4565b50919050565b81156112e7575060015b919050565b6001600160a01b0382166113155760405163ec442f0560e01b81525f6004820152602401610460565b610fae5f838361143d565b5f81831061132e5781611330565b825b9392505050565b6001600160a01b03821661136057604051634b637e8f60e11b81525f6004820152602401610460565b610fae825f8361143d565b6001600160a01b0384166113945760405163e602df0560e01b81525f6004820152602401610460565b6001600160a01b0383166113bd57604051634a1406b160e11b81525f6004820152602401610460565b6001600160a01b038085165f908152600160209081526040808320938716835292905220829055801561121b57826001600160a01b0316846001600160a01b03167f8c5be1e5ebec7d5bd14f71427d1e84f3dd0314c0f7b2291e5b200ac8c7c3b9258460405161142f91815260200190565b60405180910390a350505050565b6001600160a01b038316611467578060025f82825461145c9190611835565b909155506114d79050565b6001600160a01b0383165f90815260208190526040902054818110156114b95760405163391434e360e21b81526001600160a01b03851660048201526024810182905260448101839052606401610460565b6001600160a01b0384165f9081526020819052604090209082900390555b6001600160a01b0382166114f357600280548290039055611511565b6001600160a01b0382165f9081526020819052604090208054820190555b816001600160a01b0316836001600160a01b03167fddf252ad1be2c89b69c2b068fc378daa952ba7f163c4a11628f55a4df523b3ef8360405161155691815260200190565b60405180910390a3505050565b80356001600160a01b03811681146112e7575f5ffd5b5f5f5f5f5f6080868803121561158d575f5ffd5b85359450602086013593506115a460408701611563565b9250606086013567ffffffffffffffff8111156115bf575f5ffd5b8601601f810188136115cf575f5ffd5b803567ffffffffffffffff8111156115e5575f5ffd5b8860208284010111156115f6575f5ffd5b959894975092955050506020019190565b602081525f82518060208401528060208501604085015e5f604082850101526040601f19601f83011684010191505092915050565b5f5f6040838503121561164d575f5ffd5b61165683611563565b946020939093013593505050565b5f5f5f60608486031215611676575f5ffd5b61167f84611563565b925061168d60208501611563565b929592945050506040919091013590565b5f5f604083850312156116af575f5ffd5b6116b883611563565b91506116c660208401611563565b90509250929050565b5f602082840312156116df575f5ffd5b61133082611563565b5f5f5f5f5f5f5f60e0888a0312156116fe575f5ffd5b61170788611563565b965061171560208901611563565b95506040880135945060608801359350608088013560ff81168114611738575f5ffd5b9699959850939692959460a0840135945060c09093013592915050565b5f60208284031215611765575f5ffd5b81518015158114611330575f5ffd5b5f60208284031215611784575f5ffd5b5051919050565b600181811c9082168061179f57607f821691505b6020821081036112d757634e487b7160e01b5f52602260045260245ffd5b634e487b7160e01b5f52601160045260245ffd5b81810381811115610746576107466117bd565b8082028115828204841417610746576107466117bd565b634e487b7160e01b5f52601260045260245ffd5b5f8261181d5761181d6117fb565b500490565b5f82611830576118306117fb565b500690565b80820180821115610746576107466117bd56fea264697066735822122048202e07be9a165c4e0ea8e54150c4939ca8c604498f255963eff949841c07d964736f6c634300081e0033000000000000000000000000998ceb700e57f535873d189a6b1b7e2aa8c594eb000000000000000000000000cd88c2886a1958ba36238a070e71b51cf930b44d"
        }
      ],
      "isFixedGasLimit": false
    },
    {
      "hash": "0x8ae92abe4c6f39311be97dacae795f728157b7e8d90e85254b2d4745fc61ae0e",
      "transactionType": "CALL",
      "contractName": null,
      "contractAddress": "0xdb198beaccc55934062be9aaedce332c40a1f1ed",
      "function": "createPair(address,address)",
      "arguments": [
        "0x56EeDF50c3C4B47Ca9762298B22Cb86468f834FC",
        "0xCd88C2886A1958BA36238A070e71B51CF930b44d"
      ],
      "transaction": {
        "from": "0x742812a2ff08b76f968dffa7ca6892a428caebb1",
        "to": "0xdb198beaccc55934062be9aaedce332c40a1f1ed",
        "gas": "0x216d26",
        "value": "0x0",
        "input": "0xc9c6539600000000000000000000000056eedf50c3c4b47ca9762298b22cb86468f834fc000000000000000000000000cd88c2886a1958ba36238a070e71b51cf930b44d",
        "nonce": "0x11",
        "chainId": "0x14a34"
      },
      "additionalContracts": [
        {
          "transactionType": "CREATE",
          "contractName": null,
          "address": "0x61e24e8a69553d55bae612f2df4d959654181652",
          "initCode": "0x608060405234801561000f575f5ffd5b50604051611af9380380611af983398101604081905261002e916100eb565b6040518060400160405280600a8152602001692ab734b9bbb0b8102b1960b11b815250604051806040016040528060068152602001652aa72496ab1960d11b815250816003908161007f91906101b4565b50600461008c82826101b4565b5050600580546001600160a01b039485166001600160a01b03199182161790915560068054939094169281169290921790925560088054909116331790555061026e565b80516001600160a01b03811681146100e6575f5ffd5b919050565b5f5f604083850312156100fc575f5ffd5b610105836100d0565b9150610113602084016100d0565b90509250929050565b634e487b7160e01b5f52604160045260245ffd5b600181811c9082168061014457607f821691505b60208210810361016257634e487b7160e01b5f52602260045260245ffd5b50919050565b601f8211156101af57805f5260205f20601f840160051c8101602085101561018d5750805b601f840160051c820191505b818110156101ac575f8155600101610199565b50505b505050565b81516001600160401b038111156101cd576101cd61011c565b6101e1816101db8454610130565b84610168565b6020601f821160018114610213575f83156101fc5750848201515b5f19600385901b1c1916600184901b1784556101ac565b5f84815260208120601f198516915b828110156102425787850151825560209485019460019092019101610222565b508482101561025f57868401515f19600387901b60f8161c191681555b50505050600190811b01905550565b61187e8061027b5f395ff3fe608060405234801561000f575f5ffd5b50600436106101a1575f3560e01c80636a627842116100f3578063ba9a7a5611610093578063d21220a71161006e578063d21220a7146103a1578063d505accf146103b4578063dd62ed3e146103cb578063fff6cae914610403575f5ffd5b8063ba9a7a5614610372578063bc25cf771461037b578063c45a01551461038e575f5ffd5b80637ecebe00116100ce5780637ecebe001461031c57806389afcb441461032f57806395d89b4114610357578063a9059cbb1461035f575f5ffd5b80636a627842146102ed57806370a08231146103005780637464fc3d14610313575f5ffd5b806323b872dd1161015e5780633644e515116101395780633644e5151461028a578063485cc9551461029f5780635909c0d5146102db5780635a3d5493146102e4575f5ffd5b806323b872dd1461027757806330adf81f1461028a578063313ce56714610290575f5ffd5b8063022c0d9f146101a557806306fdde03146101ba5780630902f1ac146101d8578063095ea7b3146102135780630dfe16811461023657806318160ddd14610261575b5f5ffd5b6101b86101b3366004611579565b61040b565b005b6101c26106a3565b6040516101cf9190611607565b60405180910390f35b600754604080516001600160701b038084168252600160701b8404166020820152600160e01b90920463ffffffff16908201526060016101cf565b61022661022136600461163c565b610733565b60405190151581526020016101cf565b600554610249906001600160a01b031681565b6040516001600160a01b0390911681526020016101cf565b61026961074c565b6040519081526020016101cf565b610226610285366004611664565b61075b565b5f610269565b604051601281526020016101cf565b6101b86102ad36600461169e565b600580546001600160a01b039384166001600160a01b03199182161790915560068054929093169116179055565b61026960095481565b610269600a5481565b6102696102fb3660046116cf565b61077e565b61026961030e3660046116cf565b6109da565b610269600b5481565b61026961032a3660046116cf565b505f90565b61034261033d3660046116cf565b6109f7565b604080519283526020830191909152016101cf565b6101c2610d99565b61022661036d36600461163c565b610da8565b6102696103e881565b6101b86103893660046116cf565b610db5565b600854610249906001600160a01b031681565b600654610249906001600160a01b031681565b6101b86103c23660046116e8565b50505050505050565b6102696103d936600461169e565b6001600160a01b039182165f90815260016020908152604080832093909416825291909152205490565b6101b8610fb2565b5f85118061041857505f84115b6104695760405162461bcd60e51b815260206004820152601a60248201527f494e53554646494349454e545f4f55545055545f414d4f554e5400000000000060448201526064015b60405180910390fd5b84156104e55760055460405163a9059cbb60e01b81526001600160a01b038581166004830152602482018890529091169063a9059cbb906044016020604051808303815f875af11580156104bf573d5f5f3e3d5ffd5b505050506040513d601f19601f820116820180604052508101906104e39190611755565b505b83156105615760065460405163a9059cbb60e01b81526001600160a01b038581166004830152602482018790529091169063a9059cbb906044016020604051808303815f875af115801561053b573d5f5f3e3d5ffd5b505050506040513d601f19601f8201168201806040525081019061055f9190611755565b505b6005546040516370a0823160e01b81523060048201525f916001600160a01b0316906370a0823190602401602060405180830381865afa1580156105a7573d5f5f3e3d5ffd5b505050506040513d601f19601f820116820180604052508101906105cb9190611774565b6006546040516370a0823160e01b81523060048201529192505f916001600160a01b03909116906370a0823190602401602060405180830381865afa158015610616573d5f5f3e3d5ffd5b505050506040513d601f19601f8201168201806040525081019061063a9190611774565b9050610646828261108f565b604080515f8082526020820152908101889052606081018790526001600160a01b0386169033907fd78ad95fa46c994b6551d0da85fc275fe613ce37657fb8d5e3d130840159d8229060800160405180910390a350505050505050565b6060600380546106b29061178b565b80601f01602080910402602001604051908101604052809291908181526020018280546106de9061178b565b80156107295780601f1061070057610100808354040283529160200191610729565b820191905f5260205f20905b81548152906001019060200180831161070c57829003601f168201915b5050505050905090565b5f33610740818585611193565b60019150505b92915050565b5f61075660025490565b905090565b5f336107688582856111a5565b610773858585611221565b506001949350505050565b6005546040516370a0823160e01b81523060048201525f9182916001600160a01b03909116906370a0823190602401602060405180830381865afa1580156107c8573d5f5f3e3d5ffd5b505050506040513d601f19601f820116820180604052508101906107ec9190611774565b6006546040516370a0823160e01b81523060048201529192505f916001600160a01b03909116906370a0823190602401602060405180830381865afa158015610837573d5f5f3e3d5ffd5b505050506040513d601f19601f8201168201806040525081019061085b9190611774565b6007549091505f90610876906001600160701b0316846117d1565b6007549091505f9061089890600160701b90046001600160701b0316846117d1565b90505f6108a361074c565b9050805f036108df576103e86108c16108bc84866117e4565b61127e565b6108cb91906117d1565b95506108da60016103e86112ec565b610932565b60075461092f906001600160701b03166108f983866117e4565b610903919061180f565b600754600160701b90046001600160701b031661092084866117e4565b61092a919061180f565b611320565b95505b5f86116109815760405162461bcd60e51b815260206004820152601d60248201527f494e53554646494349454e545f4c49515549444954595f4d494e5445440000006044820152606401610460565b61098b87876112ec565b610995858561108f565b604080518481526020810184905233917f4c209b5fc8ad50758f13e2e1088ba56a560dff690a1c6fef26394f4c03821c4f910160405180910390a25050505050919050565b6001600160a01b0381165f90815260208190526040812054610746565b6005546040516370a0823160e01b81523060048201525f91829182916001600160a01b0316906370a0823190602401602060405180830381865afa158015610a41573d5f5f3e3d5ffd5b505050506040513d601f19601f82011682018060405250810190610a659190611774565b6006546040516370a0823160e01b81523060048201529192505f916001600160a01b03909116906370a0823190602401602060405180830381865afa158015610ab0573d5f5f3e3d5ffd5b505050506040513d601f19601f82011682018060405250810190610ad49190611774565b90505f610ae0306109da565b90505f610aeb61074c565b905080610af885846117e4565b610b02919061180f565b955080610b0f84846117e4565b610b19919061180f565b94505f86118015610b2957505f85115b610b755760405162461bcd60e51b815260206004820152601d60248201527f494e53554646494349454e545f4c49515549444954595f4255524e45440000006044820152606401610460565b610b7f3083611337565b60055460405163a9059cbb60e01b81526001600160a01b038981166004830152602482018990529091169063a9059cbb906044016020604051808303815f875af1158015610bcf573d5f5f3e3d5ffd5b505050506040513d601f19601f82011682018060405250810190610bf39190611755565b5060065460405163a9059cbb60e01b81526001600160a01b038981166004830152602482018890529091169063a9059cbb906044016020604051808303815f875af1158015610c44573d5f5f3e3d5ffd5b505050506040513d601f19601f82011682018060405250810190610c689190611755565b506005546040516370a0823160e01b81523060048201526001600160a01b03909116906370a0823190602401602060405180830381865afa158015610caf573d5f5f3e3d5ffd5b505050506040513d601f19601f82011682018060405250810190610cd39190611774565b6006546040516370a0823160e01b81523060048201529195506001600160a01b0316906370a0823190602401602060405180830381865afa158015610d1a573d5f5f3e3d5ffd5b505050506040513d601f19601f82011682018060405250810190610d3e9190611774565b9250610d4a848461108f565b60408051878152602081018790526001600160a01b0389169133917fdccd412f0b1252819cb1fd330b93224ca42612892bb3f4f789976e6d81936496910160405180910390a350505050915091565b6060600480546106b29061178b565b5f33610740818585611221565b6005546007546040516370a0823160e01b81523060048201526001600160a01b039092169163a9059cbb9184916001600160701b039091169084906370a0823190602401602060405180830381865afa158015610e14573d5f5f3e3d5ffd5b505050506040513d601f19601f82011682018060405250810190610e389190611774565b610e4291906117d1565b6040516001600160e01b031960e085901b1681526001600160a01b03909216600483015260248201526044016020604051808303815f875af1158015610e8a573d5f5f3e3d5ffd5b505050506040513d601f19601f82011682018060405250810190610eae9190611755565b506006546007546040516370a0823160e01b81523060048201526001600160a01b039092169163a9059cbb918491600160701b9091046001600160701b03169084906370a0823190602401602060405180830381865afa158015610f14573d5f5f3e3d5ffd5b505050506040513d601f19601f82011682018060405250810190610f389190611774565b610f4291906117d1565b6040516001600160e01b031960e085901b1681526001600160a01b03909216600483015260248201526044016020604051808303815f875af1158015610f8a573d5f5f3e3d5ffd5b505050506040513d601f19601f82011682018060405250810190610fae9190611755565b5050565b6005546040516370a0823160e01b815230600482015261108d916001600160a01b0316906370a0823190602401602060405180830381865afa158015610ffa573d5f5f3e3d5ffd5b505050506040513d601f19601f8201168201806040525081019061101e9190611774565b6006546040516370a0823160e01b81523060048201526001600160a01b03909116906370a0823190602401602060405180830381865afa158015611064573d5f5f3e3d5ffd5b505050506040513d601f19601f820116820180604052508101906110889190611774565b61108f565b565b6001600160701b0382118015906110ad57506001600160701b038111155b6110e45760405162461bcd60e51b81526020600482015260086024820152674f564552464c4f5760c01b6044820152606401610460565b600780546001600160701b03838116600160701b026001600160e01b03199092169085161717905561111b64010000000042611822565b6007805463ffffffff92909216600160e01b026001600160e01b038316811791829055604080516001600160701b03928316948316949094178452600160701b9092041660208301527f1c411e9a96e071241c2f21f7726b17ae89e3cab4c78be50e062b03a9fffbbad1910160405180910390a15050565b6111a0838383600161136b565b505050565b6001600160a01b038381165f908152600160209081526040808320938616835292905220545f1981101561121b578181101561120d57604051637dc7a0d960e11b81526001600160a01b03841660048201526024810182905260448101839052606401610460565b61121b84848484035f61136b565b50505050565b6001600160a01b03831661124a57604051634b637e8f60e11b81525f6004820152602401610460565b6001600160a01b0382166112735760405163ec442f0560e01b81525f6004820152602401610460565b6111a083838361143d565b5f60038211156112dd5750805f61129660028361180f565b6112a1906001611835565b90505b818110156112d7579050806002816112bc818661180f565b6112c69190611835565b6112d0919061180f565b90506112a4565b50919050565b81156112e7575060015b919050565b6001600160a01b0382166113155760405163ec442f0560e01b81525f6004820152602401610460565b610fae5f838361143d565b5f81831061132e5781611330565b825b9392505050565b6001600160a01b03821661136057604051634b637e8f60e11b81525f6004820152602401610460565b610fae825f8361143d565b6001600160a01b0384166113945760405163e602df0560e01b81525f6004820152602401610460565b6001600160a01b0383166113bd57604051634a1406b160e11b81525f6004820152602401610460565b6001600160a01b038085165f908152600160209081526040808320938716835292905220829055801561121b57826001600160a01b0316846001600160a01b03167f8c5be1e5ebec7d5bd14f71427d1e84f3dd0314c0f7b2291e5b200ac8c7c3b9258460405161142f91815260200190565b60405180910390a350505050565b6001600160a01b038316611467578060025f82825461145c9190611835565b909155506114d79050565b6001600160a01b0383165f90815260208190526040902054818110156114b95760405163391434e360e21b81526001600160a01b03851660048201526024810182905260448101839052606401610460565b6001600160a01b0384165f9081526020819052604090209082900390555b6001600160a01b0382166114f357600280548290039055611511565b6001600160a01b0382165f9081526020819052604090208054820190555b816001600160a01b0316836001600160a01b03167fddf252ad1be2c89b69c2b068fc378daa952ba7f163c4a11628f55a4df523b3ef8360405161155691815260200190565b60405180910390a3505050565b80356001600160a01b03811681146112e7575f5ffd5b5f5f5f5f5f6080868803121561158d575f5ffd5b85359450602086013593506115a460408701611563565b9250606086013567ffffffffffffffff8111156115bf575f5ffd5b8601601f810188136115cf575f5ffd5b803567ffffffffffffffff8111156115e5575f5ffd5b8860208284010111156115f6575f5ffd5b959894975092955050506020019190565b602081525f82518060208401528060208501604085015e5f604082850101526040601f19601f83011684010191505092915050565b5f5f6040838503121561164d575f5ffd5b61165683611563565b946020939093013593505050565b5f5f5f60608486031215611676575f5ffd5b61167f84611563565b925061168d60208501611563565b929592945050506040919091013590565b5f5f604083850312156116af575f5ffd5b6116b883611563565b91506116c660208401611563565b90509250929050565b5f602082840312156116df575f5ffd5b61133082611563565b5f5f5f5f5f5f5f60e0888a0312156116fe575f5ffd5b61170788611563565b965061171560208901611563565b95506040880135945060608801359350608088013560ff81168114611738575f5ffd5b9699959850939692959460a0840135945060c09093013592915050565b5f60208284031215611765575f5ffd5b81518015158114611330575f5ffd5b5f60208284031215611784575f5ffd5b5051919050565b600181811c9082168061179f57607f821691505b6020821081036112d757634e487b7160e01b5f52602260045260245ffd5b634e487b7160e01b5f52601160045260245ffd5b81810381811115610746576107466117bd565b8082028115828204841417610746576107466117bd565b634e487b7160e01b5f52601260045260245ffd5b5f8261181d5761181d6117fb565b500490565b5f82611830576118306117fb565b500690565b80820180821115610746576107466117bd56fea264697066735822122048202e07be9a165c4e0ea8e54150c4939ca8c604498f255963eff949841c07d964736f6c634300081e003300000000000000000000000056eedf50c3c4b47ca9762298b22cb86468f834fc000000000000000000000000cd88c2886a1958ba36238a070e71b51cf930b44d"
        }
      ],
      "isFixedGasLimit": false
    },
    {
      "hash": "0x625347fb98763fbe26cf981ab64977ac3f5809d44a34008dae91f4cae3453bf4",
      "transactionType": "CALL",
      "contractName": null,
      "contractAddress": "0xa8f2b8180cafc670f4a24114fdb9c50361038857",
      "function": "registerIdentity(address)",
      "arguments": [
        "0x61E24e8A69553D55bae612f2dF4d959654181652"
      ],
      "transaction": {
        "from": "0x742812a2ff08b76f968dffa7ca6892a428caebb1",
        "to": "0xa8f2b8180cafc670f4a24114fdb9c50361038857",
        "gas": "0x10d1c",
        "value": "0x0",
        "input": "0x63b8f8ff00000000000000000000000061e24e8a69553d55bae612f2df4d959654181652",
        "nonce": "0x12",
        "chainId": "0x14a34"
      },
      "additionalContracts": [],
      "isFixedGasLimit": false
    },
    {
      "hash": "0xa243c1da199263ba1a54a23f545a91b50befce98d956ed34adb3ebde59e2870c",
      "transactionType": "CALL",
      "contractName": null,
      "contractAddress": "0x620870d419f6afca8afed5b516619aa50900cadc",
      "function": "addLiquidity(address,address,uint256,uint256,uint256,uint256,address,uint256)",
      "arguments": [
        "0x56EeDF50c3C4B47Ca9762298B22Cb86468f834FC",
        "0xCd88C2886A1958BA36238A070e71B51CF930b44d",
        "2500000000",
        "10000000000000",
        "0",
        "0",
        "0x742812a2Ff08b76f968dffA7ca6892A428cAeBb1",
        "1768159220"
      ],
      "transaction": {
        "from": "0x742812a2ff08b76f968dffa7ca6892a428caebb1",
        "to": "0x620870d419f6afca8afed5b516619aa50900cadc",
        "gas": "0x4f06d",
        "value": "0x0",
        "input": "0xe8e3370000000000000000000000000056eedf50c3c4b47ca9762298b22cb86468f834fc000000000000000000000000cd88c2886a1958ba36238a070e71b51cf930b44d000000000000000000000000000000000000000000000000000000009502f900000000000000000000000000000000000000000000000000000009184e72a00000000000000000000000000000000000000000000000000000000000000000000000000000000000000000000000000000000000000000000000000000000000000000000000000000000000742812a2ff08b76f968dffa7ca6892a428caebb1000000000000000000000000000000000000000000000000000000006963f7f4",
        "nonce": "0x13",
        "chainId": "0x14a34"
      },
      "additionalContracts": [],
      "isFixedGasLimit": false
    }
  ],
  "receipts": [
    {
      "status": "0x1",
      "cumulativeGasUsed": "0x153d54",
      "logs": [
        {
          "address": "0x998ceb700e57f535873d189a6b1b7e2aa8c594eb",
          "topics": [
            "0xddf252ad1be2c89b69c2b068fc378daa952ba7f163c4a11628f55a4df523b3ef",
            "0x0000000000000000000000000000000000000000000000000000000000000000",
            "0x000000000000000000000000742812a2ff08b76f968dffa7ca6892a428caebb1"
          ],
          "data": "0x00000000000000000000000000000000000000000000000000038d7ea4c68000",
          "blockHash": "0x2e089d2dc4fa5854f92a22624c8ee052508fe1bc0b62a7e691735ea8eb36f36a",
          "blockNumber": "0x228458d",
          "blockTimestamp": "0x6963e9fa",
          "transactionHash": "0x0c4518b5527b4a44f6184f81aa22a978493ff73eed1f4ed6d04a787925ed252c",
          "transactionIndex": "0xa",
          "logIndex": "0x17",
          "removed": false
        },
        {
          "address": "0x998ceb700e57f535873d189a6b1b7e2aa8c594eb",
          "topics": [
            "0x0f6798a560793a54c3bcfe86a93cde1e73087d944c0ea20544137d4121396885",
            "0x000000000000000000000000742812a2ff08b76f968dffa7ca6892a428caebb1"
          ],
          "data": "0x00000000000000000000000000000000000000000000000000038d7ea4c68000",
          "blockHash": "0x2e089d2dc4fa5854f92a22624c8ee052508fe1bc0b62a7e691735ea8eb36f36a",
          "blockNumber": "0x228458d",
          "blockTimestamp": "0x6963e9fa",
          "transactionHash": "0x0c4518b5527b4a44f6184f81aa22a978493ff73eed1f4ed6d04a787925ed252c",
          "transactionIndex": "0xa",
          "logIndex": "0x18",
          "removed": false
        }
      ],
      "logsBloom": "0x00010000000000000000000000400000008000000000000000000000000000000000000000000000004000000000000000000000000000000000000000000000000000000020000000000008000000000000000000000000000000000000000000000000030000000000000000000800000000000000400000000010000000000000000000000000000000000000000000000000000000000000000000000000000080000000000000000000000000000000000000000000000000000000000000000002000000000000000000000000000000000000000000000000000060000000000000000000000000000000000000000000000000000000000000000000",
      "type": "0x2",
      "transactionHash": "0x0c4518b5527b4a44f6184f81aa22a978493ff73eed1f4ed6d04a787925ed252c",
      "transactionIndex": "0xa",
      "blockHash": "0x2e089d2dc4fa5854f92a22624c8ee052508fe1bc0b62a7e691735ea8eb36f36a",
      "blockNumber": "0x228458d",
      "gasUsed": "0x11137",
      "effectiveGasPrice": "0x124f80",
      "blobGasUsed": "0x79e0",
      "from": "0x742812a2ff08b76f968dffa7ca6892a428caebb1",
      "to": "0x998ceb700e57f535873d189a6b1b7e2aa8c594eb",
      "contractAddress": null,
      "daFootprintGasScalar": "0x138",
      "l1BaseFeeScalar": "0x44d",
      "l1BlobBaseFee": "0xb3b",
      "l1BlobBaseFeeScalar": "0xa118b",
      "l1Fee": "0x1517a6",
      "l1GasPrice": "0xc20f",
      "l1GasUsed": "0x640"
    },
    {
      "status": "0x1",
      "cumulativeGasUsed": "0x164e75",
      "logs": [
        {
          "address": "0xcd88c2886a1958ba36238a070e71b51cf930b44d",
          "topics": [
            "0xddf252ad1be2c89b69c2b068fc378daa952ba7f163c4a11628f55a4df523b3ef",
            "0x0000000000000000000000000000000000000000000000000000000000000000",
            "0x000000000000000000000000742812a2ff08b76f968dffa7ca6892a428caebb1"
          ],
          "data": "0x000000000000000000000000000000000000000000000000000009266ad8cb80",
          "blockHash": "0x2e089d2dc4fa5854f92a22624c8ee052508fe1bc0b62a7e691735ea8eb36f36a",
          "blockNumber": "0x228458d",
          "blockTimestamp": "0x6963e9fa",
          "transactionHash": "0x1da1a02023349efeec18c6e62b5a8c30350fd77ebaa5a24c3eb6e41c81b8a4ef",
          "transactionIndex": "0xb",
          "logIndex": "0x19",
          "removed": false
        },
        {
          "address": "0xcd88c2886a1958ba36238a070e71b51cf930b44d",
          "topics": [
            "0x0f6798a560793a54c3bcfe86a93cde1e73087d944c0ea20544137d4121396885",
            "0x000000000000000000000000742812a2ff08b76f968dffa7ca6892a428caebb1"
          ],
          "data": "0x000000000000000000000000000000000000000000000000000009266ad8cb80",
          "blockHash": "0x2e089d2dc4fa5854f92a22624c8ee052508fe1bc0b62a7e691735ea8eb36f36a",
          "blockNumber": "0x228458d",
          "blockTimestamp": "0x6963e9fa",
          "transactionHash": "0x1da1a02023349efeec18c6e62b5a8c30350fd77ebaa5a24c3eb6e41c81b8a4ef",
          "transactionIndex": "0xb",
          "logIndex": "0x1a",
          "removed": false
        }
      ],
      "logsBloom": "0x00010000000000010000000000000000008000000000000000000000000000000000000000000000004000000000000000000000000000000000000000000000000000000020000000000008000000000000000000000000000000000000000000000000020000000000000000000800001000000000400000000010000000000000000010000000000000000000000000000000000000000000000000000000000080000000000000000000000000000000000000000000000000000000000000000002000000000000000000000000000000000000000000000000000020000000000000000000000000000000000000000000000000000000000000000000",
      "type": "0x2",
      "transactionHash": "0x1da1a02023349efeec18c6e62b5a8c30350fd77ebaa5a24c3eb6e41c81b8a4ef",
      "transactionIndex": "0xb",
      "blockHash": "0x2e089d2dc4fa5854f92a22624c8ee052508fe1bc0b62a7e691735ea8eb36f36a",
      "blockNumber": "0x228458d",
      "gasUsed": "0x11121",
      "effectiveGasPrice": "0x124f80",
      "blobGasUsed": "0x79e0",
      "from": "0x742812a2ff08b76f968dffa7ca6892a428caebb1",
      "to": "0xcd88c2886a1958ba36238a070e71b51cf930b44d",
      "contractAddress": null,
      "daFootprintGasScalar": "0x138",
      "l1BaseFeeScalar": "0x44d",
      "l1BlobBaseFee": "0xb3b",
      "l1BlobBaseFeeScalar": "0xa118b",
      "l1Fee": "0x1517a6",
      "l1GasPrice": "0xc20f",
      "l1GasUsed": "0x640"
    },
    {
      "status": "0x1",
      "cumulativeGasUsed": "0x177fd4",
      "logs": [
        {
          "address": "0x56eedf50c3c4b47ca9762298b22cb86468f834fc",
          "topics": [
            "0xddf252ad1be2c89b69c2b068fc378daa952ba7f163c4a11628f55a4df523b3ef",
            "0x0000000000000000000000000000000000000000000000000000000000000000",
            "0x000000000000000000000000742812a2ff08b76f968dffa7ca6892a428caebb1"
          ],
          "data": "0x000000000000000000000000000000000000000000000000000000009502f900",
          "blockHash": "0x2e089d2dc4fa5854f92a22624c8ee052508fe1bc0b62a7e691735ea8eb36f36a",
          "blockNumber": "0x228458d",
          "blockTimestamp": "0x6963e9fa",
          "transactionHash": "0x8ae92abe4c6f39311be97dacae795f728157b7e8d90e85254b2d4745fc61ae0e",
          "transactionIndex": "0xc",
          "logIndex": "0x1b",
          "removed": false
        }
      ],
      "logsBloom": "0x00010000000000000000000000000000008000000000000000000000000000000000000000000000004000000000000000000000000000000000000000000000000000000000000000000008000000000000000000000000000000000000000000000000020000000000000000000800000000000000000000000010000000000000000000000000000000000000000000000100000000000000000000000000000000000000000000000000000000040000000000000000000000000000000000000002000000000000000000000000000000000000000000000000000020000000000000000000000000000000000000000000000008000000000000000000",
      "type": "0x2",
      "transactionHash": "0x8ae92abe4c6f39311be97dacae795f728157b7e8d90e85254b2d4745fc61ae0e",
      "transactionIndex": "0xc",
      "blockHash": "0x2e089d2dc4fa5854f92a22624c8ee052508fe1bc0b62a7e691735ea8eb36f36a",
      "blockNumber": "0x228458d",
      "gasUsed": "0x1315f",
      "effectiveGasPrice": "0x124f80",
      "blobGasUsed": "0x79e0",
      "from": "0x742812a2ff08b76f968dffa7ca6892a428caebb1",
      "to": "0x56eedf50c3c4b47ca9762298b22cb86468f834fc",
      "contractAddress": null,
      "daFootprintGasScalar": "0x138",
      "l1BaseFeeScalar": "0x44d",
      "l1BlobBaseFee": "0xb3b",
      "l1BlobBaseFeeScalar": "0xa118b",
      "l1Fee": "0x1517a6",
      "l1GasPrice": "0xc20f",
      "l1GasUsed": "0x640"
    },
    {
      "status": "0x1",
      "cumulativeGasUsed": "0x183635",
      "logs": [
        {
          "address": "0x998ceb700e57f535873d189a6b1b7e2aa8c594eb",
          "topics": [
            "0x8c5be1e5ebec7d5bd14f71427d1e84f3dd0314c0f7b2291e5b200ac8c7c3b925",
            "0x000000000000000000000000742812a2ff08b76f968dffa7ca6892a428caebb1",
            "0x000000000000000000000000620870d419f6afca8afed5b516619aa50900cadc"
          ],
          "data": "0xffffffffffffffffffffffffffffffffffffffffffffffffffffffffffffffff",
          "blockHash": "0x2e089d2dc4fa5854f92a22624c8ee052508fe1bc0b62a7e691735ea8eb36f36a",
          "blockNumber": "0x228458d",
          "blockTimestamp": "0x6963e9fa",
          "transactionHash": "0x625347fb98763fbe26cf981ab64977ac3f5809d44a34008dae91f4cae3453bf4",
          "transactionIndex": "0xd",
          "logIndex": "0x1c",
          "removed": false
        }
      ],
      "logsBloom": "0x08010000000000000000000000400000008100000000000000000000000000000000000000000000004000000000000000000000000000000000000000200000000000000000000000000000000000000000000000000000000000000000000000000000010000000000000000000000000000000000000000000000000000000000000000000000000000000000000000000000000000000000000004000000020000000000000000000000000000000000000000000000000000000000000000000000000000000000000000000000000000000000000000000000000040000010000000000000000000000000000000000000000000000000000000000000",
      "type": "0x2",
      "transactionHash": "0x625347fb98763fbe26cf981ab64977ac3f5809d44a34008dae91f4cae3453bf4",
      "transactionIndex": "0xd",
      "blockHash": "0x2e089d2dc4fa5854f92a22624c8ee052508fe1bc0b62a7e691735ea8eb36f36a",
      "blockNumber": "0x228458d",
      "gasUsed": "0xb661",
      "effectiveGasPrice": "0x124f80",
      "blobGasUsed": "0x79e0",
      "from": "0x742812a2ff08b76f968dffa7ca6892a428caebb1",
      "to": "0x998ceb700e57f535873d189a6b1b7e2aa8c594eb",
      "contractAddress": null,
      "daFootprintGasScalar": "0x138",
      "l1BaseFeeScalar": "0x44d",
      "l1BlobBaseFee": "0xb3b",
      "l1BlobBaseFeeScalar": "0xa118b",
      "l1Fee": "0x1517a6",
      "l1GasPrice": "0xc20f",
      "l1GasUsed": "0x640"
    },
    {
      "status": "0x1",
      "cumulativeGasUsed": "0x18ec96",
      "logs": [
        {
          "address": "0xcd88c2886a1958ba36238a070e71b51cf930b44d",
          "topics": [
            "0x8c5be1e5ebec7d5bd14f71427d1e84f3dd0314c0f7b2291e5b200ac8c7c3b925",
            "0x000000000000000000000000742812a2ff08b76f968dffa7ca6892a428caebb1",
            "0x000000000000000000000000620870d419f6afca8afed5b516619aa50900cadc"
          ],
          "data": "0xffffffffffffffffffffffffffffffffffffffffffffffffffffffffffffffff",
          "blockHash": "0x2e089d2dc4fa5854f92a22624c8ee052508fe1bc0b62a7e691735ea8eb36f36a",
          "blockNumber": "0x228458d",
          "blockTimestamp": "0x6963e9fa",
          "transactionHash": "0xf674dbbb27cce66a41016e828cb8160c7649b3497864f3ac38ba09debcc561dd",
          "transactionIndex": "0xe",
          "logIndex": "0x1d",
          "removed": false
        }
      ],
      "logsBloom": "0x08010000000000010000000000000000008100000000000000000000000000000000000000000000004000000000000000000000000000000000000000200000000000000000000000000000000000000000000000000000000000000000000000000000000000000000000000000000001000000000000000000000000000000000000010000000000000000000000000000000000000000000000004000000020000000000000000000000000000000000000000000000000000000000000000000000000000000000000000000000000000000000000000000000000000000010000000000000000000000000000000000000000000000000000000000000",
      "type": "0x2",
      "transactionHash": "0xf674dbbb27cce66a41016e828cb8160c7649b3497864f3ac38ba09debcc561dd",
      "transactionIndex": "0xe",
      "blockHash": "0x2e089d2dc4fa5854f92a22624c8ee052508fe1bc0b62a7e691735ea8eb36f36a",
      "blockNumber": "0x228458d",
      "gasUsed": "0xb661",
      "effectiveGasPrice": "0x124f80",
      "blobGasUsed": "0x79e0",
      "from": "0x742812a2ff08b76f968dffa7ca6892a428caebb1",
      "to": "0xcd88c2886a1958ba36238a070e71b51cf930b44d",
      "contractAddress": null,
      "daFootprintGasScalar": "0x138",
      "l1BaseFeeScalar": "0x44d",
      "l1BlobBaseFee": "0xb3b",
      "l1BlobBaseFeeScalar": "0xa118b",
      "l1Fee": "0x1517a6",
      "l1GasPrice": "0xc20f",
      "l1GasUsed": "0x640"
    },
    {
      "status": "0x1",
      "cumulativeGasUsed": "0x19a2f8",
      "logs": [
        {
          "address": "0x56eedf50c3c4b47ca9762298b22cb86468f834fc",
          "topics": [
            "0x8c5be1e5ebec7d5bd14f71427d1e84f3dd0314c0f7b2291e5b200ac8c7c3b925",
            "0x000000000000000000000000742812a2ff08b76f968dffa7ca6892a428caebb1",
            "0x000000000000000000000000620870d419f6afca8afed5b516619aa50900cadc"
          ],
          "data": "0xffffffffffffffffffffffffffffffffffffffffffffffffffffffffffffffff",
          "blockHash": "0x2e089d2dc4fa5854f92a22624c8ee052508fe1bc0b62a7e691735ea8eb36f36a",
          "blockNumber": "0x228458d",
          "blockTimestamp": "0x6963e9fa",
          "transactionHash": "0x03583f61c3b7560899b4cee57140624a524939a270abc3b3d8da6fd7665b2088",
          "transactionIndex": "0xf",
          "logIndex": "0x1e",
          "removed": false
        }
      ],
      "logsBloom": "0x08010000000000000000000000000000008100000000000000000000000000000000000000000000004000000000000000000000000000000000000000200000000000000000000000000000000000000000000000000000000000000000000000000000000000000000000000000000000000000000000000000000000000000000000000000000000000000000000000000100000000000000000004000000020000000000000000000000000000040000000000000000000000000000000000000000000000000000000000000000000000000000000000000000000000000010000000000000000000000000000000000000000008000000000000000000",
      "type": "0x2",
      "transactionHash": "0x03583f61c3b7560899b4cee57140624a524939a270abc3b3d8da6fd7665b2088",
      "transactionIndex": "0xf",
      "blockHash": "0x2e089d2dc4fa5854f92a22624c8ee052508fe1bc0b62a7e691735ea8eb36f36a",
      "blockNumber": "0x228458d",
      "gasUsed": "0xb662",
      "effectiveGasPrice": "0x124f80",
      "blobGasUsed": "0x79e0",
      "from": "0x742812a2ff08b76f968dffa7ca6892a428caebb1",
      "to": "0x56eedf50c3c4b47ca9762298b22cb86468f834fc",
      "contractAddress": null,
      "daFootprintGasScalar": "0x138",
      "l1BaseFeeScalar": "0x44d",
      "l1BlobBaseFee": "0xb3b",
      "l1BlobBaseFeeScalar": "0xa118b",
      "l1Fee": "0x1517a6",
      "l1GasPrice": "0xc20f",
      "l1GasUsed": "0x640"
    },
    {
      "status": "0x1",
      "cumulativeGasUsed": "0x1a65c1",
      "logs": [
        {
          "address": "0xa8f2b8180cafc670f4a24114fdb9c50361038857",
          "topics": [
            "0x22bfb6218489c201b6ec174e5dd0380b7877b3a2d12eed0542f6b5e8ef712f28",
            "0x000000000000000000000000620870d419f6afca8afed5b516619aa50900cadc"
          ],
          "data": "0x000000000000000000000000000000000000000000000000000000006963e9fa",
          "blockHash": "0x2e089d2dc4fa5854f92a22624c8ee052508fe1bc0b62a7e691735ea8eb36f36a",
          "blockNumber": "0x228458d",
          "blockTimestamp": "0x6963e9fa",
          "transactionHash": "0xb86cb5855ded09703d2bf9fc04e9b207e888af1a26b6a7a4d8c7984b4fd53941",
          "transactionIndex": "0x10",
          "logIndex": "0x1f",
          "removed": false
        }
      ],
      "logsBloom": "0x08000000000000000000000000000100000100000000000000000000000000000000000000000000000000000000000000000000000000000000000000000000000000000000000000000000000000000000000000000000000000000000000000008000000000000000000000000000000000000000000000000000000000000000001000000000000000000000000000000000000800000000000004000000000000000000000000000000000000000000000000000000000000000000000000000000000000000000000000000000000000000000000000000000000400000000000000000000000000000000000000000000000000000000000000000000",
      "type": "0x2",
      "transactionHash": "0xb86cb5855ded09703d2bf9fc04e9b207e888af1a26b6a7a4d8c7984b4fd53941",
      "transactionIndex": "0x10",
      "blockHash": "0x2e089d2dc4fa5854f92a22624c8ee052508fe1bc0b62a7e691735ea8eb36f36a",
      "blockNumber": "0x228458d",
      "gasUsed": "0xc2c9",
      "effectiveGasPrice": "0x124f80",
      "blobGasUsed": "0x79e0",
      "from": "0x742812a2ff08b76f968dffa7ca6892a428caebb1",
      "to": "0xa8f2b8180cafc670f4a24114fdb9c50361038857",
      "contractAddress": null,
      "daFootprintGasScalar": "0x138",
      "l1BaseFeeScalar": "0x44d",
      "l1BlobBaseFee": "0xb3b",
      "l1BlobBaseFeeScalar": "0xa118b",
      "l1Fee": "0x1517a6",
      "l1GasPrice": "0xc20f",
      "l1GasUsed": "0x640"
    },
    {
      "status": "0x1",
      "cumulativeGasUsed": "0x3aa47c",
      "logs": [
        {
          "address": "0xdb198beaccc55934062be9aaedce332c40a1f1ed",
          "topics": [
            "0x0d3648bd0f6ba80134a33ba9275ac585d9d315f0ad8355cddefde31afa28d0e9",
            "0x000000000000000000000000998ceb700e57f535873d189a6b1b7e2aa8c594eb",
            "0x000000000000000000000000cd88c2886a1958ba36238a070e71b51cf930b44d"
          ],
          "data": "0x000000000000000000000000d1fed56a7b4c93df968494bb9a6023546da45d3b0000000000000000000000000000000000000000000000000000000000000001",
          "blockHash": "0x35e86d8088b9d20bd2569fdaf0668779550ea6d27aaf5bc7367578ac6b39128d",
          "blockNumber": "0x228458d",
          "blockTimestamp": "0x6963e9fa",
          "transactionHash": "0xa243c1da199263ba1a54a23f545a91b50befce98d956ed34adb3ebde59e2870c",
          "transactionIndex": "0x13",
          "logIndex": "0x20",
          "removed": false
        },
        {
          "address": "0x998ceb700e57f535873d189a6b1b7e2aa8c594eb",
          "topics": [
            "0xddf252ad1be2c89b69c2b068fc378daa952ba7f163c4a11628f55a4df523b3ef",
            "0x000000000000000000000000742812a2ff08b76f968dffa7ca6892a428caebb1",
            "0x000000000000000000000000d1fed56a7b4c93df968494bb9a6023546da45d3b"
          ],
          "data": "0x00000000000000000000000000000000000000000000000000038d7ea4c68000",
          "blockHash": "0x35e86d8088b9d20bd2569fdaf0668779550ea6d27aaf5bc7367578ac6b39128d",
          "blockNumber": "0x228458d",
          "blockTimestamp": "0x6963e9fa",
          "transactionHash": "0xa243c1da199263ba1a54a23f545a91b50befce98d956ed34adb3ebde59e2870c",
          "transactionIndex": "0x13",
          "logIndex": "0x21",
          "removed": false
        },
        {
          "address": "0xcd88c2886a1958ba36238a070e71b51cf930b44d",
          "topics": [
            "0xddf252ad1be2c89b69c2b068fc378daa952ba7f163c4a11628f55a4df523b3ef",
            "0x000000000000000000000000742812a2ff08b76f968dffa7ca6892a428caebb1",
            "0x000000000000000000000000d1fed56a7b4c93df968494bb9a6023546da45d3b"
          ],
          "data": "0x0000000000000000000000000000000000000000000000000000000e1c662b80",
          "blockHash": "0x35e86d8088b9d20bd2569fdaf0668779550ea6d27aaf5bc7367578ac6b39128d",
          "blockNumber": "0x228458d",
          "blockTimestamp": "0x6963e9fa",
          "transactionHash": "0xa243c1da199263ba1a54a23f545a91b50befce98d956ed34adb3ebde59e2870c",
          "transactionIndex": "0x13",
          "logIndex": "0x22",
          "removed": false
        },
        {
          "address": "0xd1fed56a7b4c93df968494bb9a6023546da45d3b",
          "topics": [
            "0xddf252ad1be2c89b69c2b068fc378daa952ba7f163c4a11628f55a4df523b3ef",
            "0x0000000000000000000000000000000000000000000000000000000000000000",
            "0x0000000000000000000000000000000000000000000000000000000000000001"
          ],
          "data": "0x00000000000000000000000000000000000000000000000000000000000003e8",
          "blockHash": "0x35e86d8088b9d20bd2569fdaf0668779550ea6d27aaf5bc7367578ac6b39128d",
          "blockNumber": "0x228458d",
          "blockTimestamp": "0x6963e9fa",
          "transactionHash": "0xa243c1da199263ba1a54a23f545a91b50befce98d956ed34adb3ebde59e2870c",
          "transactionIndex": "0x13",
          "logIndex": "0x23",
          "removed": false
        },
        {
          "address": "0xd1fed56a7b4c93df968494bb9a6023546da45d3b",
          "topics": [
            "0xddf252ad1be2c89b69c2b068fc378daa952ba7f163c4a11628f55a4df523b3ef",
            "0x0000000000000000000000000000000000000000000000000000000000000000",
            "0x000000000000000000000000742812a2ff08b76f968dffa7ca6892a428caebb1"
          ],
          "data": "0x00000000000000000000000000000000000000000000000000000714954c5557",
          "blockHash": "0x35e86d8088b9d20bd2569fdaf0668779550ea6d27aaf5bc7367578ac6b39128d",
          "blockNumber": "0x228458d",
          "blockTimestamp": "0x6963e9fa",
          "transactionHash": "0xa243c1da199263ba1a54a23f545a91b50befce98d956ed34adb3ebde59e2870c",
          "transactionIndex": "0x13",
          "logIndex": "0x24",
          "removed": false
        },
        {
          "address": "0xd1fed56a7b4c93df968494bb9a6023546da45d3b",
          "topics": [
            "0x1c411e9a96e071241c2f21f7726b17ae89e3cab4c78be50e062b03a9fffbbad1"
          ],
          "data": "0x00000000000000000000000000000000000000000000000000038d7ea4c680000000000000000000000000000000000000000000000000000000000e1c662b80",
          "blockHash": "0x35e86d8088b9d20bd2569fdaf0668779550ea6d27aaf5bc7367578ac6b39128d",
          "blockNumber": "0x228458d",
          "blockTimestamp": "0x6963e9fa",
          "transactionHash": "0xa243c1da199263ba1a54a23f545a91b50befce98d956ed34adb3ebde59e2870c",
          "transactionIndex": "0x13",
          "logIndex": "0x25",
          "removed": false
        },
        {
          "address": "0xd1fed56a7b4c93df968494bb9a6023546da45d3b",
          "topics": [
            "0x4c209b5fc8ad50758f13e2e1088ba56a560dff690a1c6fef26394f4c03821c4f",
            "0x000000000000000000000000620870d419f6afca8afed5b516619aa50900cadc"
          ],
          "data": "0x00000000000000000000000000000000000000000000000000038d7ea4c680000000000000000000000000000000000000000000000000000000000e1c662b80",
          "blockHash": "0x35e86d8088b9d20bd2569fdaf0668779550ea6d27aaf5bc7367578ac6b39128d",
          "blockNumber": "0x228458d",
          "blockTimestamp": "0x6963e9fa",
          "transactionHash": "0xa243c1da199263ba1a54a23f545a91b50befce98d956ed34adb3ebde59e2870c",
          "transactionIndex": "0x13",
          "logIndex": "0x26",
          "removed": false
        }
      ],
      "logsBloom": "0x08010000000000010000000080400000008100000000000000002000200001000000000000000000004000000000000000000000000000000002000000040000000000000000000020000008000004000000000000040000000000000000000000000000030000000000000000000800001000000008000000000010000000000000000010000000000000000000000000000000000000080000000004000000000000000800000000004000000000000000000040000000000000020000000000000002820000000000800000020040000020000000001000000000000060000080000000000000080000000000000000000000000080000000100000000000",
      "type": "0x2",
      "transactionHash": "0xa243c1da199263ba1a54a23f545a91b50befce98d956ed34adb3ebde59e2870c",
      "transactionIndex": "0x13",
      "blockHash": "0x35e86d8088b9d20bd2569fdaf0668779550ea6d27aaf5bc7367578ac6b39128d",
      "blockNumber": "0x228458d",
      "gasUsed": "0x19efee",
      "effectiveGasPrice": "0x124f80",
      "blobGasUsed": "0xb460",
      "from": "0x742812a2ff08b76f968dffa7ca6892a428caebb1",
      "to": "0x620870d419f6afca8afed5b516619aa50900cadc",
      "contractAddress": null,
      "daFootprintGasScalar": "0x138",
      "l1BaseFeeScalar": "0x44d",
      "l1BlobBaseFee": "0xb3b",
      "l1BlobBaseFeeScalar": "0xa118b",
      "l1Fee": "0x64d39",
      "l1GasPrice": "0xc20f",
      "l1GasUsed": "0x94f"
    },
    {
      "status": "0x1",
      "cumulativeGasUsed": "0x517f87",
      "logs": [
        {
          "address": "0xdb198beaccc55934062be9aaedce332c40a1f1ed",
          "topics": [
            "0x0d3648bd0f6ba80134a33ba9275ac585d9d315f0ad8355cddefde31afa28d0e9",
            "0x00000000000000000000000056eedf50c3c4b47ca9762298b22cb86468f834fc",
            "0x000000000000000000000000cd88c2886a1958ba36238a070e71b51cf930b44d"
          ],
          "data": "0x00000000000000000000000061e24e8a69553d55bae612f2df4d9596541816520000000000000000000000000000000000000000000000000000000000000002",
          "blockHash": "0x35e86d8088b9d20bd2569fdaf0668779550ea6d27aaf5bc7367578ac6b39128d",
          "blockNumber": "0x228458d",
          "blockTimestamp": "0x6963e9fa",
          "transactionHash": "0xe475e35687a3c413a0ff62e0b23e90fb0eee2dbd9121dbcd47330c7febbcdb95",
          "transactionIndex": "0x14",
          "logIndex": "0x27",
          "removed": false
        }
      ],
      "logsBloom": "0x00000000000000000000000000000000000000000000000000002000000000001000000000000000000000000000000000000000000000000000000000000000000000000000000020000000000000000000000000000000000000000000000000000000000000000040000000000000000000000000000000000000000000000000000000000000000000000000000000000000000000000000000000000000000000000800000000000000002000000000000000000000000000020000000000000000820000000000000000000040000000000000000000000000000000000000000000000000080000000000000000000000000000000000100000000000",
      "type": "0x2",
      "transactionHash": "0xe475e35687a3c413a0ff62e0b23e90fb0eee2dbd9121dbcd47330c7febbcdb95",
      "transactionIndex": "0x14",
      "blockHash": "0x35e86d8088b9d20bd2569fdaf0668779550ea6d27aaf5bc7367578ac6b39128d",
      "blockNumber": "0x228458d",
      "gasUsed": "0x16db0b",
      "effectiveGasPrice": "0x124f80",
      "blobGasUsed": "0x79e0",
      "from": "0x742812a2ff08b76f968dffa7ca6892a428caebb1",
      "to": "0xdb198beaccc55934062be9aaedce332c40a1f1ed",
      "contractAddress": null,
      "daFootprintGasScalar": "0x138",
      "l1BaseFeeScalar": "0x44d",
      "l1BlobBaseFee": "0xb3b",
      "l1BlobBaseFeeScalar": "0xa118b",
      "l1Fee": "0x64d39",
      "l1GasPrice": "0xc20f",
      "l1GasUsed": "0x640"
    },
    {
      "status": "0x1",
      "cumulativeGasUsed": "0x52425c",
      "logs": [
        {
          "address": "0xa8f2b8180cafc670f4a24114fdb9c50361038857",
          "topics": [
            "0x22bfb6218489c201b6ec174e5dd0380b7877b3a2d12eed0542f6b5e8ef712f28",
            "0x00000000000000000000000061e24e8a69553d55bae612f2df4d959654181652"
          ],
          "data": "0x000000000000000000000000000000000000000000000000000000006963e9fa",
          "blockHash": "0x35e86d8088b9d20bd2569fdaf0668779550ea6d27aaf5bc7367578ac6b39128d",
          "blockNumber": "0x228458d",
          "blockTimestamp": "0x6963e9fa",
          "transactionHash": "0xe9ed08cb1a16176ab9656ecfad54c03605fc0c87d30f860af298e50c0cf91ccb",
          "transactionIndex": "0x15",
          "logIndex": "0x28",
          "removed": false
        }
      ],
      "logsBloom": "0x00000000040000000000000000000100000000000000000000000000000000000000000000000000000000800000000000000400000000000000000000000000000000000000000000000000000000000000000000000000000000000000000000008000000000000000000000000000000000000000000000000000000000000000001000000000000000000000000000000000000800000000000000000000000000000000000000000000000000000000000000000000000000000000000000000000000000000000000000000000000000000000000000000000000400000000000000000000000000000000000000000000000000000000000000000000",
      "type": "0x2",
      "transactionHash": "0xe9ed08cb1a16176ab9656ecfad54c03605fc0c87d30f860af298e50c0cf91ccb",
      "transactionIndex": "0x15",
      "blockHash": "0x35e86d8088b9d20bd2569fdaf0668779550ea6d27aaf5bc7367578ac6b39128d",
      "blockNumber": "0x228458d",
      "gasUsed": "0xc2d5",
      "effectiveGasPrice": "0x124f80",
      "blobGasUsed": "0x79e0",
      "from": "0x742812a2ff08b76f968dffa7ca6892a428caebb1",
      "to": "0xa8f2b8180cafc670f4a24114fdb9c50361038857",
      "contractAddress": null,
      "daFootprintGasScalar": "0x138",
      "l1BaseFeeScalar": "0x44d",
      "l1BlobBaseFee": "0xb3b",
      "l1BlobBaseFeeScalar": "0xa118b",
      "l1Fee": "0x64d39",
      "l1GasPrice": "0xc20f",
      "l1GasUsed": "0x640"
    },
    {
      "status": "0x1",
      "cumulativeGasUsed": "0x55a2ed",
      "logs": [
        {
          "address": "0x56eedf50c3c4b47ca9762298b22cb86468f834fc",
          "topics": [
            "0xddf252ad1be2c89b69c2b068fc378daa952ba7f163c4a11628f55a4df523b3ef",
            "0x000000000000000000000000742812a2ff08b76f968dffa7ca6892a428caebb1",
            "0x00000000000000000000000061e24e8a69553d55bae612f2df4d959654181652"
          ],
          "data": "0x000000000000000000000000000000000000000000000000000000009502f900",
          "blockHash": "0x35e86d8088b9d20bd2569fdaf0668779550ea6d27aaf5bc7367578ac6b39128d",
          "blockNumber": "0x228458d",
          "blockTimestamp": "0x6963e9fa",
          "transactionHash": "0x44878237dd0068cf8b41710dfe7b4cbfc9e92fcfb7f8f463f36027e1fc7bab49",
          "transactionIndex": "0x16",
          "logIndex": "0x29",
          "removed": false
        },
        {
          "address": "0xcd88c2886a1958ba36238a070e71b51cf930b44d",
          "topics": [
            "0xddf252ad1be2c89b69c2b068fc378daa952ba7f163c4a11628f55a4df523b3ef",
            "0x000000000000000000000000742812a2ff08b76f968dffa7ca6892a428caebb1",
            "0x00000000000000000000000061e24e8a69553d55bae612f2df4d959654181652"
          ],
          "data": "0x000000000000000000000000000000000000000000000000000009184e72a000",
          "blockHash": "0x35e86d8088b9d20bd2569fdaf0668779550ea6d27aaf5bc7367578ac6b39128d",
          "blockNumber": "0x228458d",
          "blockTimestamp": "0x6963e9fa",
          "transactionHash": "0x44878237dd0068cf8b41710dfe7b4cbfc9e92fcfb7f8f463f36027e1fc7bab49",
          "transactionIndex": "0x16",
          "logIndex": "0x2a",
          "removed": false
        },
        {
          "address": "0x61e24e8a69553d55bae612f2df4d959654181652",
          "topics": [
            "0xddf252ad1be2c89b69c2b068fc378daa952ba7f163c4a11628f55a4df523b3ef",
            "0x0000000000000000000000000000000000000000000000000000000000000000",
            "0x0000000000000000000000000000000000000000000000000000000000000001"
          ],
          "data": "0x00000000000000000000000000000000000000000000000000000000000003e8",
          "blockHash": "0x35e86d8088b9d20bd2569fdaf0668779550ea6d27aaf5bc7367578ac6b39128d",
          "blockNumber": "0x228458d",
          "blockTimestamp": "0x6963e9fa",
          "transactionHash": "0x44878237dd0068cf8b41710dfe7b4cbfc9e92fcfb7f8f463f36027e1fc7bab49",
          "transactionIndex": "0x16",
          "logIndex": "0x2b",
          "removed": false
        },
        {
          "address": "0x61e24e8a69553d55bae612f2df4d959654181652",
          "topics": [
            "0xddf252ad1be2c89b69c2b068fc378daa952ba7f163c4a11628f55a4df523b3ef",
            "0x0000000000000000000000000000000000000000000000000000000000000000",
            "0x000000000000000000000000742812a2ff08b76f968dffa7ca6892a428caebb1"
          ],
          "data": "0x00000000000000000000000000000000000000000000000000000024d0525f98",
          "blockHash": "0x35e86d8088b9d20bd2569fdaf0668779550ea6d27aaf5bc7367578ac6b39128d",
          "blockNumber": "0x228458d",
          "blockTimestamp": "0x6963e9fa",
          "transactionHash": "0x44878237dd0068cf8b41710dfe7b4cbfc9e92fcfb7f8f463f36027e1fc7bab49",
          "transactionIndex": "0x16",
          "logIndex": "0x2c",
          "removed": false
        },
        {
          "address": "0x61e24e8a69553d55bae612f2df4d959654181652",
          "topics": [
            "0x1c411e9a96e071241c2f21f7726b17ae89e3cab4c78be50e062b03a9fffbbad1"
          ],
          "data": "0x000000000000000000000000000000000000000000000000000000009502f900000000000000000000000000000000000000000000000000000009184e72a000",
          "blockHash": "0x35e86d8088b9d20bd2569fdaf0668779550ea6d27aaf5bc7367578ac6b39128d",
          "blockNumber": "0x228458d",
          "blockTimestamp": "0x6963e9fa",
          "transactionHash": "0x44878237dd0068cf8b41710dfe7b4cbfc9e92fcfb7f8f463f36027e1fc7bab49",
          "transactionIndex": "0x16",
          "logIndex": "0x2d",
          "removed": false
        },
        {
          "address": "0x61e24e8a69553d55bae612f2df4d959654181652",
          "topics": [
            "0x4c209b5fc8ad50758f13e2e1088ba56a560dff690a1c6fef26394f4c03821c4f",
            "0x000000000000000000000000620870d419f6afca8afed5b516619aa50900cadc"
          ],
          "data": "0x000000000000000000000000000000000000000000000000000000009502f900000000000000000000000000000000000000000000000000000009184e72a000",
          "blockHash": "0x35e86d8088b9d20bd2569fdaf0668779550ea6d27aaf5bc7367578ac6b39128d",
          "blockNumber": "0x228458d",
          "blockTimestamp": "0x6963e9fa",
          "transactionHash": "0x44878237dd0068cf8b41710dfe7b4cbfc9e92fcfb7f8f463f36027e1fc7bab49",
          "transactionIndex": "0x16",
          "logIndex": "0x2e",
          "removed": false
        }
      ],
      "logsBloom": "0x08010000040000010000000080000000008100000000000000000000000001000000000000000000004000800000000000000400000000000000000000040000000000000000000100000008000000000000000000040000000000000000000000000000020000000000000000000800001000000008000000000010000000000000000010000000000000000000000040000500000000080000000004000000000000000000000000000000000000040000000000000000000000000000000000000002000000000000000000020000000000000000001000000000000060000000000000000000000000000000000000000000000008000000000000000000",
      "type": "0x2",
      "transactionHash": "0x44878237dd0068cf8b41710dfe7b4cbfc9e92fcfb7f8f463f36027e1fc7bab49",
      "transactionIndex": "0x16",
      "blockHash": "0x35e86d8088b9d20bd2569fdaf0668779550ea6d27aaf5bc7367578ac6b39128d",
      "blockNumber": "0x228458d",
      "gasUsed": "0x36091",
      "effectiveGasPrice": "0x124f80",
      "blobGasUsed": "0xb328",
      "from": "0x742812a2ff08b76f968dffa7ca6892a428caebb1",
      "to": "0x620870d419f6afca8afed5b516619aa50900cadc",
      "contractAddress": null,
      "daFootprintGasScalar": "0x138",
      "l1BaseFeeScalar": "0x44d",
      "l1BlobBaseFee": "0xb3b",
      "l1BlobBaseFeeScalar": "0xa118b",
      "l1Fee": "0x64d39",
      "l1GasPrice": "0xc20f",
      "l1GasUsed": "0x934"
    }
  ],
  "libraries": [],
  "pending": [],
  "returns": {},
  "timestamp": 1768155639828,
  "chain": 84532,
  "commit": "767cf24"
}